{
  "contractName": "ContractBurger",
  "abi": [
    {
      "inputs": [
        {
          "internalType": "string",
          "name": "name",
          "type": "string"
        },
        {
          "internalType": "string",
          "name": "symbol",
          "type": "string"
        },
        {
          "internalType": "string",
          "name": "baseURI",
          "type": "string"
        }
      ],
      "stateMutability": "nonpayable",
      "type": "constructor"
    },
    {
      "anonymous": false,
      "inputs": [
        {
          "indexed": true,
          "internalType": "address",
          "name": "owner",
          "type": "address"
        },
        {
          "indexed": true,
          "internalType": "address",
          "name": "approved",
          "type": "address"
        },
        {
          "indexed": true,
          "internalType": "uint256",
          "name": "tokenId",
          "type": "uint256"
        }
      ],
      "name": "Approval",
      "type": "event"
    },
    {
      "anonymous": false,
      "inputs": [
        {
          "indexed": true,
          "internalType": "address",
          "name": "owner",
          "type": "address"
        },
        {
          "indexed": true,
          "internalType": "address",
          "name": "operator",
          "type": "address"
        },
        {
          "indexed": false,
          "internalType": "bool",
          "name": "approved",
          "type": "bool"
        }
      ],
      "name": "ApprovalForAll",
      "type": "event"
    },
    {
      "anonymous": false,
      "inputs": [
        {
          "indexed": true,
          "internalType": "address",
          "name": "previousOwner",
          "type": "address"
        },
        {
          "indexed": true,
          "internalType": "address",
          "name": "newOwner",
          "type": "address"
        }
      ],
      "name": "OwnershipTransferred",
      "type": "event"
    },
    {
      "anonymous": false,
      "inputs": [
        {
          "indexed": true,
          "internalType": "address",
          "name": "from",
          "type": "address"
        },
        {
          "indexed": true,
          "internalType": "address",
          "name": "to",
          "type": "address"
        },
        {
          "indexed": true,
          "internalType": "uint256",
          "name": "tokenId",
          "type": "uint256"
        }
      ],
      "name": "Transfer",
      "type": "event"
    },
    {
      "inputs": [],
      "name": "MAX_RESERVE",
      "outputs": [
        {
          "internalType": "uint256",
          "name": "",
          "type": "uint256"
        }
      ],
      "stateMutability": "view",
      "type": "function"
    },
    {
      "inputs": [],
      "name": "MAX_SUPPLY",
      "outputs": [
        {
          "internalType": "uint256",
          "name": "",
          "type": "uint256"
        }
      ],
      "stateMutability": "view",
      "type": "function"
    },
    {
      "inputs": [],
      "name": "SALE_START_TIMESTAMP",
      "outputs": [
        {
          "internalType": "uint256",
          "name": "",
          "type": "uint256"
        }
      ],
      "stateMutability": "view",
      "type": "function"
    },
    {
      "inputs": [],
      "name": "_dataVault",
      "outputs": [
        {
          "internalType": "string",
          "name": "",
          "type": "string"
        }
      ],
      "stateMutability": "view",
      "type": "function"
    },
    {
      "inputs": [
        {
          "internalType": "address",
          "name": "to",
          "type": "address"
        },
        {
          "internalType": "uint256",
          "name": "tokenId",
          "type": "uint256"
        }
      ],
      "name": "approve",
      "outputs": [],
      "stateMutability": "nonpayable",
      "type": "function"
    },
    {
      "inputs": [
        {
          "internalType": "address",
          "name": "owner",
          "type": "address"
        }
      ],
      "name": "balanceOf",
      "outputs": [
        {
          "internalType": "uint256",
          "name": "",
          "type": "uint256"
        }
      ],
      "stateMutability": "view",
      "type": "function"
    },
    {
      "inputs": [],
      "name": "baseURI",
      "outputs": [
        {
          "internalType": "string",
          "name": "",
          "type": "string"
        }
      ],
      "stateMutability": "view",
      "type": "function"
    },
    {
      "inputs": [],
      "name": "currentDraw",
      "outputs": [
        {
          "internalType": "uint256",
          "name": "",
          "type": "uint256"
        }
      ],
      "stateMutability": "view",
      "type": "function"
    },
    {
      "inputs": [],
      "name": "dateDraw1",
      "outputs": [
        {
          "internalType": "uint256",
          "name": "",
          "type": "uint256"
        }
      ],
      "stateMutability": "view",
      "type": "function"
    },
    {
      "inputs": [],
      "name": "drawAfterTotalSupply",
      "outputs": [
        {
          "internalType": "uint256",
          "name": "",
          "type": "uint256"
        }
      ],
      "stateMutability": "view",
      "type": "function"
    },
    {
      "inputs": [
        {
          "internalType": "uint256",
          "name": "",
          "type": "uint256"
        }
      ],
      "name": "drawAmounts",
      "outputs": [
        {
          "internalType": "uint256",
          "name": "",
          "type": "uint256"
        }
      ],
      "stateMutability": "view",
      "type": "function"
    },
    {
      "inputs": [],
      "name": "fundsDon",
      "outputs": [
        {
          "internalType": "uint256",
          "name": "",
          "type": "uint256"
        }
      ],
      "stateMutability": "view",
      "type": "function"
    },
    {
      "inputs": [],
      "name": "fundsDraw",
      "outputs": [
        {
          "internalType": "uint256",
          "name": "",
          "type": "uint256"
        }
      ],
      "stateMutability": "view",
      "type": "function"
    },
    {
      "inputs": [],
      "name": "fundsRoyal",
      "outputs": [
        {
          "internalType": "uint256",
          "name": "",
          "type": "uint256"
        }
      ],
      "stateMutability": "view",
      "type": "function"
    },
    {
      "inputs": [
        {
          "internalType": "uint256",
          "name": "tokenId",
          "type": "uint256"
        }
      ],
      "name": "getApproved",
      "outputs": [
        {
          "internalType": "address",
          "name": "",
          "type": "address"
        }
      ],
      "stateMutability": "view",
      "type": "function"
    },
    {
      "inputs": [],
      "name": "imageHash",
      "outputs": [
        {
          "internalType": "string",
          "name": "",
          "type": "string"
        }
      ],
      "stateMutability": "view",
      "type": "function"
    },
    {
      "inputs": [
        {
          "internalType": "address",
          "name": "owner",
          "type": "address"
        },
        {
          "internalType": "address",
          "name": "operator",
          "type": "address"
        }
      ],
      "name": "isApprovedForAll",
      "outputs": [
        {
          "internalType": "bool",
          "name": "",
          "type": "bool"
        }
      ],
      "stateMutability": "view",
      "type": "function"
    },
    {
      "inputs": [],
      "name": "name",
      "outputs": [
        {
          "internalType": "string",
          "name": "",
          "type": "string"
        }
      ],
      "stateMutability": "view",
      "type": "function"
    },
    {
      "inputs": [],
      "name": "owner",
      "outputs": [
        {
          "internalType": "address",
          "name": "",
          "type": "address"
        }
      ],
      "stateMutability": "view",
      "type": "function"
    },
    {
      "inputs": [
        {
          "internalType": "uint256",
          "name": "tokenId",
          "type": "uint256"
        }
      ],
      "name": "ownerOf",
      "outputs": [
        {
          "internalType": "address",
          "name": "",
          "type": "address"
        }
      ],
      "stateMutability": "view",
      "type": "function"
    },
    {
      "inputs": [
        {
          "internalType": "address",
          "name": "",
          "type": "address"
        }
      ],
      "name": "pendingWithdrawals",
      "outputs": [
        {
          "internalType": "uint256",
          "name": "",
          "type": "uint256"
        }
      ],
      "stateMutability": "view",
      "type": "function"
    },
    {
      "inputs": [],
      "name": "randIndex",
      "outputs": [
        {
          "internalType": "uint256",
          "name": "",
          "type": "uint256"
        }
      ],
      "stateMutability": "view",
      "type": "function"
    },
    {
      "inputs": [],
      "name": "renounceOwnership",
      "outputs": [],
      "stateMutability": "nonpayable",
      "type": "function"
    },
    {
      "inputs": [],
      "name": "reserved",
      "outputs": [
        {
          "internalType": "uint256",
          "name": "",
          "type": "uint256"
        }
      ],
      "stateMutability": "view",
      "type": "function"
    },
    {
      "inputs": [
        {
          "internalType": "address",
          "name": "from",
          "type": "address"
        },
        {
          "internalType": "address",
          "name": "to",
          "type": "address"
        },
        {
          "internalType": "uint256",
          "name": "tokenId",
          "type": "uint256"
        }
      ],
      "name": "safeTransferFrom",
      "outputs": [],
      "stateMutability": "nonpayable",
      "type": "function"
    },
    {
      "inputs": [
        {
          "internalType": "address",
          "name": "from",
          "type": "address"
        },
        {
          "internalType": "address",
          "name": "to",
          "type": "address"
        },
        {
          "internalType": "uint256",
          "name": "tokenId",
          "type": "uint256"
        },
        {
          "internalType": "bytes",
          "name": "_data",
          "type": "bytes"
        }
      ],
      "name": "safeTransferFrom",
      "outputs": [],
      "stateMutability": "nonpayable",
      "type": "function"
    },
    {
      "inputs": [
        {
          "internalType": "address",
          "name": "operator",
          "type": "address"
        },
        {
          "internalType": "bool",
          "name": "approved",
          "type": "bool"
        }
      ],
      "name": "setApprovalForAll",
      "outputs": [],
      "stateMutability": "nonpayable",
      "type": "function"
    },
    {
      "inputs": [
        {
          "internalType": "bytes4",
          "name": "interfaceId",
          "type": "bytes4"
        }
      ],
      "name": "supportsInterface",
      "outputs": [
        {
          "internalType": "bool",
          "name": "",
          "type": "bool"
        }
      ],
      "stateMutability": "view",
      "type": "function"
    },
    {
      "inputs": [],
      "name": "symbol",
      "outputs": [
        {
          "internalType": "string",
          "name": "",
          "type": "string"
        }
      ],
      "stateMutability": "view",
      "type": "function"
    },
    {
      "inputs": [
        {
          "internalType": "uint256",
          "name": "",
          "type": "uint256"
        }
      ],
      "name": "texugoBids",
      "outputs": [
        {
          "internalType": "bool",
          "name": "hasBid",
          "type": "bool"
        },
        {
          "internalType": "uint256",
          "name": "texugoIndex",
          "type": "uint256"
        },
        {
          "internalType": "address",
          "name": "bidder",
          "type": "address"
        },
        {
          "internalType": "uint256",
          "name": "value",
          "type": "uint256"
        }
      ],
      "stateMutability": "view",
      "type": "function"
    },
    {
      "inputs": [],
      "name": "texugoIndex",
      "outputs": [
        {
          "internalType": "uint256",
          "name": "",
          "type": "uint256"
        }
      ],
      "stateMutability": "view",
      "type": "function"
    },
    {
      "inputs": [
        {
          "internalType": "uint256",
          "name": "",
          "type": "uint256"
        }
      ],
      "name": "texugosOfferedForSale",
      "outputs": [
        {
          "internalType": "bool",
          "name": "isForSale",
          "type": "bool"
        },
        {
          "internalType": "uint256",
          "name": "texugoIndex",
          "type": "uint256"
        },
        {
          "internalType": "address",
          "name": "seller",
          "type": "address"
        },
        {
          "internalType": "uint256",
          "name": "minValue",
          "type": "uint256"
        },
        {
          "internalType": "address",
          "name": "onlySellTo",
          "type": "address"
        }
      ],
      "stateMutability": "view",
      "type": "function"
    },
    {
      "inputs": [],
      "name": "texugosRemainingToAssign",
      "outputs": [
        {
          "internalType": "uint256",
          "name": "",
          "type": "uint256"
        }
      ],
      "stateMutability": "view",
      "type": "function"
    },
    {
      "inputs": [
        {
          "internalType": "uint256",
          "name": "index",
          "type": "uint256"
        }
      ],
      "name": "tokenByIndex",
      "outputs": [
        {
          "internalType": "uint256",
          "name": "",
          "type": "uint256"
        }
      ],
      "stateMutability": "view",
      "type": "function"
    },
    {
      "inputs": [
        {
          "internalType": "address",
          "name": "owner",
          "type": "address"
        },
        {
          "internalType": "uint256",
          "name": "index",
          "type": "uint256"
        }
      ],
      "name": "tokenOfOwnerByIndex",
      "outputs": [
        {
          "internalType": "uint256",
          "name": "",
          "type": "uint256"
        }
      ],
      "stateMutability": "view",
      "type": "function"
    },
    {
      "inputs": [],
      "name": "totalSupply",
      "outputs": [
        {
          "internalType": "uint256",
          "name": "",
          "type": "uint256"
        }
      ],
      "stateMutability": "view",
      "type": "function"
    },
    {
      "inputs": [
        {
          "internalType": "address",
          "name": "from",
          "type": "address"
        },
        {
          "internalType": "address",
          "name": "to",
          "type": "address"
        },
        {
          "internalType": "uint256",
          "name": "tokenId",
          "type": "uint256"
        }
      ],
      "name": "transferFrom",
      "outputs": [],
      "stateMutability": "nonpayable",
      "type": "function"
    },
    {
      "inputs": [
        {
          "internalType": "address",
          "name": "newOwner",
          "type": "address"
        }
      ],
      "name": "transferOwnership",
      "outputs": [],
      "stateMutability": "nonpayable",
      "type": "function"
    },
    {
      "inputs": [],
      "name": "unitprice",
      "outputs": [
        {
          "internalType": "uint256",
          "name": "",
          "type": "uint256"
        }
      ],
      "stateMutability": "view",
      "type": "function"
    },
    {
      "inputs": [
        {
          "internalType": "address",
          "name": "donationRecipient",
          "type": "address"
        }
      ],
      "name": "changeDonationRecipient",
      "outputs": [],
      "stateMutability": "nonpayable",
      "type": "function"
    },
    {
      "inputs": [],
      "name": "getDonationRecipient",
      "outputs": [
        {
          "internalType": "address",
          "name": "",
          "type": "address"
        }
      ],
      "stateMutability": "view",
      "type": "function"
    },
    {
      "inputs": [],
      "name": "withdrawDonation",
      "outputs": [],
      "stateMutability": "nonpayable",
      "type": "function"
    },
    {
      "inputs": [
        {
          "internalType": "address",
          "name": "royalRecipient",
          "type": "address"
        }
      ],
      "name": "changeRoyalRecipient",
      "outputs": [],
      "stateMutability": "nonpayable",
      "type": "function"
    },
    {
      "inputs": [],
      "name": "getRoyalRecipient",
      "outputs": [
        {
          "internalType": "address",
          "name": "",
          "type": "address"
        }
      ],
      "stateMutability": "view",
      "type": "function"
    },
    {
      "inputs": [],
      "name": "withdrawRoyal",
      "outputs": [],
      "stateMutability": "nonpayable",
      "type": "function"
    },
    {
      "inputs": [],
      "name": "getDraw1Recipient",
      "outputs": [
        {
          "internalType": "address",
          "name": "",
          "type": "address"
        }
      ],
      "stateMutability": "view",
      "type": "function"
    },
    {
      "inputs": [],
      "name": "withdrawFundsDraw",
      "outputs": [],
      "stateMutability": "nonpayable",
      "type": "function"
    },
    {
      "inputs": [
        {
          "internalType": "string",
          "name": "dataVault",
          "type": "string"
        }
      ],
      "name": "dataVaultOnChain",
      "outputs": [],
      "stateMutability": "nonpayable",
      "type": "function"
    },
    {
      "inputs": [
        {
          "internalType": "uint256",
          "name": "new_SALE_START_TIMESTAMP",
          "type": "uint256"
        }
      ],
      "name": "setSaleTimestamp",
      "outputs": [],
      "stateMutability": "nonpayable",
      "type": "function"
    },
    {
      "inputs": [
        {
          "internalType": "uint256",
          "name": "amount",
          "type": "uint256"
        }
      ],
      "name": "getNFTPrice",
      "outputs": [
        {
          "internalType": "uint256",
          "name": "",
          "type": "uint256"
        }
      ],
      "stateMutability": "view",
      "type": "function"
    },
    {
      "inputs": [
        {
          "internalType": "uint256",
          "name": "amount",
          "type": "uint256"
        }
      ],
      "name": "mintBurger",
      "outputs": [],
      "stateMutability": "payable",
      "type": "function"
    },
    {
      "inputs": [
        {
          "internalType": "uint256",
          "name": "tokenId",
          "type": "uint256"
        }
      ],
      "name": "buyTexugo",
      "outputs": [],
      "stateMutability": "payable",
      "type": "function"
    },
    {
      "inputs": [
        {
          "internalType": "uint256",
          "name": "tokenId",
          "type": "uint256"
        }
      ],
      "name": "texugoNoLongerForSale",
      "outputs": [],
      "stateMutability": "nonpayable",
      "type": "function"
    },
    {
      "inputs": [
        {
          "internalType": "uint256",
          "name": "tokenId",
          "type": "uint256"
        },
        {
          "internalType": "uint256",
          "name": "minSalePriceInWei",
          "type": "uint256"
        }
      ],
      "name": "offerTexugoForSale",
      "outputs": [],
      "stateMutability": "nonpayable",
      "type": "function"
    },
    {
      "inputs": [
        {
          "internalType": "uint256",
          "name": "tokenId",
          "type": "uint256"
        }
      ],
      "name": "enterBidForTexugo",
      "outputs": [],
      "stateMutability": "payable",
      "type": "function"
    },
    {
      "inputs": [
        {
          "internalType": "uint256",
          "name": "tokenId",
          "type": "uint256"
        },
        {
          "internalType": "uint256",
          "name": "minPrice",
          "type": "uint256"
        }
      ],
      "name": "acceptBidForTexugo",
      "outputs": [],
      "stateMutability": "nonpayable",
      "type": "function"
    },
    {
      "inputs": [
        {
          "internalType": "uint256",
          "name": "tokenId",
          "type": "uint256"
        }
      ],
      "name": "withdrawBidForTexugo",
      "outputs": [],
      "stateMutability": "nonpayable",
      "type": "function"
    },
    {
      "inputs": [
        {
          "internalType": "address payable",
          "name": "recipient",
          "type": "address"
        },
        {
          "internalType": "uint256",
          "name": "amount",
          "type": "uint256"
        }
      ],
      "name": "transferEther",
      "outputs": [],
      "stateMutability": "payable",
      "type": "function"
    },
    {
      "inputs": [
        {
          "internalType": "uint256",
          "name": "amount",
          "type": "uint256"
        }
      ],
      "name": "withdraw",
      "outputs": [],
      "stateMutability": "nonpayable",
      "type": "function"
    },
    {
      "inputs": [],
      "name": "withdraw",
      "outputs": [],
      "stateMutability": "nonpayable",
      "type": "function"
    },
    {
      "inputs": [
        {
          "internalType": "string",
          "name": "baseURI",
          "type": "string"
        }
      ],
      "name": "changeBaseURI",
      "outputs": [],
      "stateMutability": "nonpayable",
      "type": "function"
    },
    {
      "inputs": [
        {
          "internalType": "uint256",
          "name": "tokenId",
          "type": "uint256"
        }
      ],
      "name": "tokenURI",
      "outputs": [
        {
          "internalType": "string",
          "name": "",
          "type": "string"
        }
      ],
      "stateMutability": "view",
      "type": "function"
    }
  ],
  "bytecode": "0x60806040526001601155614e3460125560006013556000601455600060155567016345785d8a00006019556040518060600160405280670de0b6b3a764000067ffffffffffffffff168152602001671bc16d674ec8000067ffffffffffffffff1681526020016729a2241af62c000067ffffffffffffffff16815250601a9060036200008d92919062000367565b506000601c556000601d556000601e556000601f55348015620000af57600080fd5b506040516200709b3803806200709b8339818101604052810190620000d59190620004e7565b8282620000ef6301ffc9a760e01b620001a560201b60201c565b81600b908051906020019062000107929190620003c5565b5080600c908051906020019062000120929190620003c5565b50620001396380ac58cd60e01b620001a560201b60201c565b62000151635b5e139f60e01b620001a560201b60201c565b6200016963780e9d6360e01b620001a560201b60201c565b50506200018b6200017f6200027d60201b60201c565b6200028560201b60201c565b6200019c816200034b60201b60201c565b5050506200072e565b63ffffffff60e01b817bffffffffffffffffffffffffffffffffffffffffffffffffffffffff1916141562000211576040517f08c379a00000000000000000000000000000000000000000000000000000000081526004016200020890620005ca565b60405180910390fd5b6001600080837bffffffffffffffffffffffffffffffffffffffffffffffffffffffff19167bffffffffffffffffffffffffffffffffffffffffffffffffffffffff1916815260200190815260200160002060006101000a81548160ff02191690831515021790555050565b600033905090565b6000600f60009054906101000a900473ffffffffffffffffffffffffffffffffffffffff16905081600f60006101000a81548173ffffffffffffffffffffffffffffffffffffffff021916908373ffffffffffffffffffffffffffffffffffffffff1602179055508173ffffffffffffffffffffffffffffffffffffffff168173ffffffffffffffffffffffffffffffffffffffff167f8be0079c531659141344cd1fd0a4f28419497f9722a3daafe3b4186f6b6457e060405160405180910390a35050565b80600e908051906020019062000363929190620003c5565b5050565b828054828255906000526020600020908101928215620003b2579160200282015b82811115620003b1578251829067ffffffffffffffff1690559160200191906001019062000388565b5b509050620003c1919062000456565b5090565b828054620003d3906200069a565b90600052602060002090601f016020900481019282620003f7576000855562000443565b82601f106200041257805160ff191683800117855562000443565b8280016001018555821562000443579182015b828111156200044257825182559160200191906001019062000425565b5b50905062000452919062000456565b5090565b5b808211156200047157600081600090555060010162000457565b5090565b60006200048c620004868462000620565b620005ec565b905082815260208101848484011115620004a557600080fd5b620004b284828562000664565b509392505050565b600082601f830112620004cc57600080fd5b8151620004de84826020860162000475565b91505092915050565b600080600060608486031215620004fd57600080fd5b600084015167ffffffffffffffff8111156200051857600080fd5b6200052686828701620004ba565b935050602084015167ffffffffffffffff8111156200054457600080fd5b6200055286828701620004ba565b925050604084015167ffffffffffffffff8111156200057057600080fd5b6200057e86828701620004ba565b9150509250925092565b600062000597601c8362000653565b91507f4552433136353a20696e76616c696420696e74657266616365206964000000006000830152602082019050919050565b60006020820190508181036000830152620005e58162000588565b9050919050565b6000604051905081810181811067ffffffffffffffff82111715620006165762000615620006ff565b5b8060405250919050565b600067ffffffffffffffff8211156200063e576200063d620006ff565b5b601f19601f8301169050602081019050919050565b600082825260208201905092915050565b60005b838110156200068457808201518184015260208101905062000667565b8381111562000694576000848401525b50505050565b60006002820490506001821680620006b357607f821691505b60208210811415620006ca57620006c9620006d0565b5b50919050565b7f4e487b7100000000000000000000000000000000000000000000000000000000600052602260045260246000fd5b7f4e487b7100000000000000000000000000000000000000000000000000000000600052604160045260246000fd5b61695d806200073e6000396000f3fe6080604052600436106103ac5760003560e01c8063715018a6116101e7578063b66a2a581161010d578063e81e1ccc116100a0578063f3947a1f1161006f578063f3947a1f14610d90578063f3f4370314610dbb578063fe60d12c14610df8578063ff6f449f14610e23576103ac565b8063e81e1ccc14610ce8578063e985e9c514610cff578063eff31e9e14610d3c578063f2fde38b14610d67576103ac565b8063c84c3de2116100dc578063c84c3de214610c17578063c87b56dd14610c40578063ce942aab14610c7d578063da25448d14610ca8576103ac565b8063b66a2a5814610b83578063b672b03614610bac578063b88d4fde14610bd7578063bb1ce73814610c00576103ac565b8063946807fd116101855780639adb2782116101545780639adb278214610ae8578063a22cb46514610b04578063a2e034f614610b2d578063b279e52814610b58576103ac565b8063946807fd14610a3c57806395d89b4114610a675780639741488e14610a9257806397ba287c14610abd576103ac565b806388ffcffd116101c157806388ffcffd146109805780638b1f6555146109ab5780638da5cb5b146109d457806392976179146109ff576103ac565b8063715018a614610915578063723543901461092c5780637a1cbd3f14610957576103ac565b80633ccfd60b116102d75780635e7801b31161026a5780636b15fb0d116102395780636b15fb0d1461085b5780636c0360eb146108845780636faa81ec146108af57806370a08231146108d8576103ac565b80635e7801b3146107ac5780636352211e146107d757806364699684146108145780636a67b99114610830576103ac565b80634f6ccce7116102a65780634f6ccce7146106eb5780635147fe051461072857806351605d801461076557806359eb70b514610790576103ac565b80633ccfd60b1461063f5780634099a7731461065657806342842e0e14610681578063489dd712146106aa576103ac565b80631d2089ac1161034f5780632e1a7d4d1161031e5780632e1a7d4d146105855780632f745c59146105ae57806332cb6b0c146105eb57806339a0c6f914610616576103ac565b80631d2089ac146104f157806323b872dd1461051a5780632a5741f4146105435780632d0f1ee41461055a576103ac565b806306fdde031161038b57806306fdde0314610435578063081812fc14610460578063095ea7b31461049d57806318160ddd146104c6576103ac565b80627cb1f8146103b157806301ffc9a7146103dc57806305b1137b14610419575b600080fd5b3480156103bd57600080fd5b506103c6610e4c565b6040516103d39190616392565b60405180910390f35b3480156103e857600080fd5b5061040360048036038101906103fe9190615183565b610e52565b6040516104109190615edd565b60405180910390f35b610433600480360381019061042e9190614fc9565b610eb9565b005b34801561044157600080fd5b5061044a610f80565b6040516104579190615f90565b60405180910390f35b34801561046c57600080fd5b5061048760048036038101906104829190615216565b611012565b6040516104949190615e76565b60405180910390f35b3480156104a957600080fd5b506104c460048036038101906104bf9190615147565b611097565b005b3480156104d257600080fd5b506104db6111af565b6040516104e89190616392565b60405180910390f35b3480156104fd57600080fd5b5061051860048036038101906105139190614fa0565b6111c0565b005b34801561052657600080fd5b50610541600480360381019061053c9190615041565b611248565b005b34801561054f57600080fd5b506105586112a8565b005b34801561056657600080fd5b5061056f61135b565b60405161057c9190616392565b60405180910390f35b34801561059157600080fd5b506105ac60048036038101906105a79190615216565b611361565b005b3480156105ba57600080fd5b506105d560048036038101906105d09190615147565b611427565b6040516105e29190616392565b60405180910390f35b3480156105f757600080fd5b50610600611482565b60405161060d9190616392565b60405180910390f35b34801561062257600080fd5b5061063d600480360381019061063891906151d5565b611488565b005b34801561064b57600080fd5b50610654611510565b005b34801561066257600080fd5b5061066b611628565b6040516106789190615e76565b60405180910390f35b34801561068d57600080fd5b506106a860048036038101906106a39190615041565b611652565b005b3480156106b657600080fd5b506106d160048036038101906106cc9190615216565b611672565b6040516106e2959493929190615f3d565b60405180910390f35b3480156106f757600080fd5b50610712600480360381019061070d9190615216565b6116f5565b60405161071f9190616392565b60405180910390f35b34801561073457600080fd5b5061074f600480360381019061074a9190615216565b611718565b60405161075c9190616392565b60405180910390f35b34801561077157600080fd5b5061077a61173c565b6040516107879190615f90565b60405180910390f35b6107aa60048036038101906107a59190615216565b611775565b005b3480156107b857600080fd5b506107c1611c60565b6040516107ce9190615e76565b60405180910390f35b3480156107e357600080fd5b506107fe60048036038101906107f99190615216565b611c8a565b60405161080b9190615e76565b60405180910390f35b61082e60048036038101906108299190615216565b611cc1565b005b34801561083c57600080fd5b50610845612026565b6040516108529190616392565b60405180910390f35b34801561086757600080fd5b50610882600480360381019061087d919061523f565b612032565b005b34801561089057600080fd5b50610899612402565b6040516108a69190615f90565b60405180910390f35b3480156108bb57600080fd5b506108d660048036038101906108d191906151d5565b612494565b005b3480156108e457600080fd5b506108ff60048036038101906108fa9190614fa0565b6124a0565b60405161090c9190616392565b60405180910390f35b34801561092157600080fd5b5061092a61255f565b005b34801561093857600080fd5b506109416125e7565b60405161094e9190616392565b60405180910390f35b34801561096357600080fd5b5061097e60048036038101906109799190615216565b6125ed565b005b34801561098c57600080fd5b50610995612673565b6040516109a29190616392565b60405180910390f35b3480156109b757600080fd5b506109d260048036038101906109cd9190615216565b612679565b005b3480156109e057600080fd5b506109e961294a565b6040516109f69190615e76565b60405180910390f35b348015610a0b57600080fd5b50610a266004803603810190610a219190615216565b612974565b604051610a339190616392565b60405180910390f35b348015610a4857600080fd5b50610a516129dd565b604051610a5e9190616392565b60405180910390f35b348015610a7357600080fd5b50610a7c6129e3565b604051610a899190615f90565b60405180910390f35b348015610a9e57600080fd5b50610aa7612a75565b604051610ab49190615e76565b60405180910390f35b348015610ac957600080fd5b50610ad2612a9f565b604051610adf9190616392565b60405180910390f35b610b026004803603810190610afd9190615216565b612aa5565b005b348015610b1057600080fd5b50610b2b6004803603810190610b26919061510b565b612da8565b005b348015610b3957600080fd5b50610b42612f29565b604051610b4f9190616392565b60405180910390f35b348015610b6457600080fd5b50610b6d612f2f565b604051610b7a9190616392565b60405180910390f35b348015610b8f57600080fd5b50610baa6004803603810190610ba59190614fa0565b612f35565b005b348015610bb857600080fd5b50610bc1612fbd565b604051610bce9190616392565b60405180910390f35b348015610be357600080fd5b50610bfe6004803603810190610bf99190615090565b612fc3565b005b348015610c0c57600080fd5b50610c15613025565b005b348015610c2357600080fd5b50610c3e6004803603810190610c399190615216565b6131df565b005b348015610c4c57600080fd5b50610c676004803603810190610c629190615216565b6131f3565b604051610c749190615f90565b60405180910390f35b348015610c8957600080fd5b50610c92613275565b604051610c9f9190615f90565b60405180910390f35b348015610cb457600080fd5b50610ccf6004803603810190610cca9190615216565b613303565b604051610cdf9493929190615ef8565b60405180910390f35b348015610cf457600080fd5b50610cfd613360565b005b348015610d0b57600080fd5b50610d266004803603810190610d219190615005565b613413565b604051610d339190615edd565b60405180910390f35b348015610d4857600080fd5b50610d516134a7565b604051610d5e9190616392565b60405180910390f35b348015610d7357600080fd5b50610d8e6004803603810190610d899190614fa0565b6134ac565b005b348015610d9c57600080fd5b50610da56135a4565b604051610db29190616392565b60405180910390f35b348015610dc757600080fd5b50610de26004803603810190610ddd9190614fa0565b6135aa565b604051610def9190616392565b60405180910390f35b348015610e0457600080fd5b50610e0d6135c2565b604051610e1a9190616392565b60405180910390f35b348015610e2f57600080fd5b50610e4a6004803603810190610e45919061523f565b6135c8565b005b601e5481565b6000806000837bffffffffffffffffffffffffffffffffffffffffffffffffffffffff19167bffffffffffffffffffffffffffffffffffffffffffffffffffffffff1916815260200190815260200160002060009054906101000a900460ff169050919050565b610ec16137c7565b73ffffffffffffffffffffffffffffffffffffffff16610edf61294a565b73ffffffffffffffffffffffffffffffffffffffff1614610f35576040517f08c379a0000000000000000000000000000000000000000000000000000000008152600401610f2c906161d2565b60405180910390fd5b8173ffffffffffffffffffffffffffffffffffffffff166108fc829081150290604051600060405180830381858888f19350505050158015610f7b573d6000803e3d6000fd5b505050565b6060600b8054610f8f90616693565b80601f0160208091040260200160405190810160405280929190818152602001828054610fbb90616693565b80156110085780601f10610fdd57610100808354040283529160200191611008565b820191906000526020600020905b815481529060010190602001808311610feb57829003601f168201915b5050505050905090565b600061101d826137cf565b61105c576040517f08c379a000000000000000000000000000000000000000000000000000000000815260040161105390616192565b60405180910390fd5b6009600083815260200190815260200160002060009054906101000a900473ffffffffffffffffffffffffffffffffffffffff169050919050565b60006110a282611c8a565b90508073ffffffffffffffffffffffffffffffffffffffff168373ffffffffffffffffffffffffffffffffffffffff161415611113576040517f08c379a000000000000000000000000000000000000000000000000000000000815260040161110a90616252565b60405180910390fd5b8073ffffffffffffffffffffffffffffffffffffffff166111326137c7565b73ffffffffffffffffffffffffffffffffffffffff16148061116157506111608161115b6137c7565b613413565b5b6111a0576040517f08c379a000000000000000000000000000000000000000000000000000000000815260040161119790616112565b60405180910390fd5b6111aa83836137ec565b505050565b60006111bb60066138a5565b905090565b6111c86137c7565b73ffffffffffffffffffffffffffffffffffffffff166111e661294a565b73ffffffffffffffffffffffffffffffffffffffff161461123c576040517f08c379a0000000000000000000000000000000000000000000000000000000008152600401611233906161d2565b60405180910390fd5b611245816138ba565b50565b6112596112536137c7565b826138fe565b611298576040517f08c379a000000000000000000000000000000000000000000000000000000000815260040161128f90616312565b60405180910390fd5b6112a38383836139dc565b505050565b601860009054906101000a900473ffffffffffffffffffffffffffffffffffffffff1673ffffffffffffffffffffffffffffffffffffffff163373ffffffffffffffffffffffffffffffffffffffff161461130257600080fd5b6000601e5490506000601e819055503373ffffffffffffffffffffffffffffffffffffffff166108fc829081150290604051600060405180830381858888f19350505050158015611357573d6000803e3d6000fd5b5050565b60155481565b6113696137c7565b73ffffffffffffffffffffffffffffffffffffffff1661138761294a565b73ffffffffffffffffffffffffffffffffffffffff16146113dd576040517f08c379a00000000000000000000000000000000000000000000000000000000081526004016113d4906161d2565b60405180910390fd5b3373ffffffffffffffffffffffffffffffffffffffff166108fc829081150290604051600060405180830381858888f19350505050158015611423573d6000803e3d6000fd5b5050565b600061147a82600560008673ffffffffffffffffffffffffffffffffffffffff1673ffffffffffffffffffffffffffffffffffffffff168152602001908152602001600020613bf390919063ffffffff16565b905092915050565b614e3481565b6114906137c7565b73ffffffffffffffffffffffffffffffffffffffff166114ae61294a565b73ffffffffffffffffffffffffffffffffffffffff1614611504576040517f08c379a00000000000000000000000000000000000000000000000000000000081526004016114fb906161d2565b60405180910390fd5b61150d81613c0d565b50565b60006004600061151e6137c7565b73ffffffffffffffffffffffffffffffffffffffff1673ffffffffffffffffffffffffffffffffffffffff1681526020019081526020016000205490506000600460006115696137c7565b73ffffffffffffffffffffffffffffffffffffffff1673ffffffffffffffffffffffffffffffffffffffff1681526020019081526020016000208190555060006115b16137c7565b73ffffffffffffffffffffffffffffffffffffffff16826040516115d490615e46565b60006040518083038185875af1925050503d8060008114611611576040519150601f19603f3d011682016040523d82523d6000602084013e611616565b606091505b505090508061162457600080fd5b5050565b6000601860009054906101000a900473ffffffffffffffffffffffffffffffffffffffff16905090565b61166d83838360405180602001604052806000815250612fc3565b505050565b60026020528060005260406000206000915090508060000160009054906101000a900460ff16908060010154908060020160009054906101000a900473ffffffffffffffffffffffffffffffffffffffff16908060030154908060040160009054906101000a900473ffffffffffffffffffffffffffffffffffffffff16905085565b60008061170c836006613c2790919063ffffffff16565b50905080915050919050565b601a818154811061172857600080fd5b906000526020600020016000915090505481565b6040518060400160405280601681526020017f6e6f746e65656465642d61667465722d6572633732310000000000000000000081525081565b6000600260008381526020019081526020016000206040518060a00160405290816000820160009054906101000a900460ff16151515158152602001600182015481526020016002820160009054906101000a900473ffffffffffffffffffffffffffffffffffffffff1673ffffffffffffffffffffffffffffffffffffffff1673ffffffffffffffffffffffffffffffffffffffff168152602001600382015481526020016004820160009054906101000a900473ffffffffffffffffffffffffffffffffffffffff1673ffffffffffffffffffffffffffffffffffffffff1673ffffffffffffffffffffffffffffffffffffffff16815250509050614e3482106118b6576040517f08c379a00000000000000000000000000000000000000000000000000000000081526004016118ad906162b2565b60405180910390fd5b80600001516118fa576040517f08c379a00000000000000000000000000000000000000000000000000000000081526004016118f190616232565b60405180910390fd5b600073ffffffffffffffffffffffffffffffffffffffff16816080015173ffffffffffffffffffffffffffffffffffffffff16148061196f575061193c6137c7565b73ffffffffffffffffffffffffffffffffffffffff16816080015173ffffffffffffffffffffffffffffffffffffffff16145b6119ae576040517f08c379a00000000000000000000000000000000000000000000000000000000081526004016119a5906160b2565b60405180910390fd5b80606001513410156119f5576040517f08c379a00000000000000000000000000000000000000000000000000000000081526004016119ec906162d2565b60405180910390fd5b806040015173ffffffffffffffffffffffffffffffffffffffff16611a1983611c8a565b73ffffffffffffffffffffffffffffffffffffffff1614611a6f576040517f08c379a0000000000000000000000000000000000000000000000000000000008152600401611a6690616352565b60405180910390fd5b600081604001519050611a9a81611a846137c7565b8560405180602001604052806000815250613c53565b6064605f34611aa99190616513565b611ab391906164e2565b600460008373ffffffffffffffffffffffffffffffffffffffff1673ffffffffffffffffffffffffffffffffffffffff1681526020019081526020016000206000828254611b01919061648c565b925050819055506000611b1261294a565b73ffffffffffffffffffffffffffffffffffffffff166064600434611b379190616513565b611b4191906164e2565b604051611b4d90615e46565b60006040518083038185875af1925050503d8060008114611b8a576040519150601f19603f3d011682016040523d82523d6000602084013e611b8f565b606091505b505090506103e8603234611ba39190616513565b611bad91906164e2565b601c6000828254611bbe919061648c565b925050819055506103e8603234611bd59190616513565b611bdf91906164e2565b601d6000828254611bf0919061648c565b92505081905550601a601f5481548110611c33577f4e487b7100000000000000000000000000000000000000000000000000000000600052603260045260246000fd5b9060005260206000200154601d541115611c5057611c4f613caf565b5b80611c5a57600080fd5b50505050565b6000601760009054906101000a900473ffffffffffffffffffffffffffffffffffffffff16905090565b6000611cba826040518060600160405280602981526020016168ff602991396006613ceb9092919063ffffffff16565b9050919050565b614e34611ccc6111af565b10611d0c576040517f08c379a0000000000000000000000000000000000000000000000000000000008152600401611d0390616272565b60405180910390fd5b60008111611d4f576040517f08c379a0000000000000000000000000000000000000000000000000000000008152600401611d4690616292565b60405180910390fd5b6014811115611d93576040517f08c379a0000000000000000000000000000000000000000000000000000000008152600401611d8a906161b2565b60405180910390fd5b614e34611da7611da16111af565b83613d0a565b1115611de8576040517f08c379a0000000000000000000000000000000000000000000000000000000008152600401611ddf90616012565b60405180910390fd5b34611df282612974565b14611e32576040517f08c379a0000000000000000000000000000000000000000000000000000000008152600401611e2990615fb2565b60405180910390fd5b6064600534611e419190616513565b611e4b91906164e2565b601d6000828254611e5c919061648c565b925050819055506064600534611e729190616513565b611e7c91906164e2565b601c6000828254611e8d919061648c565b925050819055506064602d34611ea39190616513565b611ead91906164e2565b601e6000828254611ebe919061648c565b925050819055506000611ecf61294a565b73ffffffffffffffffffffffffffffffffffffffff166064602d34611ef49190616513565b611efe91906164e2565b604051611f0a90615e46565b60006040518083038185875af1925050503d8060008114611f47576040519150601f19603f3d011682016040523d82523d6000602084013e611f4c565b606091505b5050905080611f5a57600080fd5b60005b82811015611fc857601254611f73601254613d20565b611f7d919061674e565b601481905550611fa3601260008154611f9590616669565b919050819055601454613e04565b601581905550611fb533601554613ed2565b8080611fc0906166c5565b915050611f5d565b50601a601f5481548110612005577f4e487b7100000000000000000000000000000000000000000000000000000000600052603260045260246000fd5b9060005260206000200154601d54111561202257612021613caf565b5b5050565b670429d069189e000081565b61203a6137c7565b82614e34811061207f576040517f08c379a0000000000000000000000000000000000000000000000000000000008152600401612076906162b2565b60405180910390fd5b8173ffffffffffffffffffffffffffffffffffffffff1661209f82611c8a565b73ffffffffffffffffffffffffffffffffffffffff16146120f5576040517f08c379a00000000000000000000000000000000000000000000000000000000081526004016120ec906161f2565b60405180910390fd5b826003600086815260200190815260200160002060030154101561214e576040517f08c379a0000000000000000000000000000000000000000000000000000000008152600401612145906162f2565b60405180910390fd5b6000600360008681526020019081526020016000206040518060800160405290816000820160009054906101000a900460ff16151515158152602001600182015481526020016002820160009054906101000a900473ffffffffffffffffffffffffffffffffffffffff1673ffffffffffffffffffffffffffffffffffffffff1673ffffffffffffffffffffffffffffffffffffffff16815260200160038201548152505090506040518060800160405280600015158152602001868152602001600073ffffffffffffffffffffffffffffffffffffffff16815260200160008152506003600087815260200190815260200160002060008201518160000160006101000a81548160ff0219169083151502179055506020820151816001015560408201518160020160006101000a81548173ffffffffffffffffffffffffffffffffffffffff021916908373ffffffffffffffffffffffffffffffffffffffff160217905550606082015181600301559050506122e86122cd6137c7565b82604001518760405180602001604052806000815250613c53565b6064605f82606001516122fb9190616513565b61230591906164e2565b600460006123116137c7565b73ffffffffffffffffffffffffffffffffffffffff1673ffffffffffffffffffffffffffffffffffffffff168152602001908152602001600020600082825461235a919061648c565b92505081905550600061236b61294a565b73ffffffffffffffffffffffffffffffffffffffff166064600584606001516123949190616513565b61239e91906164e2565b6040516123aa90615e46565b60006040518083038185875af1925050503d80600081146123e7576040519150601f19603f3d011682016040523d82523d6000602084013e6123ec565b606091505b50509050806123fa57600080fd5b505050505050565b6060600e805461241190616693565b80601f016020809104026020016040519081016040528092919081815260200182805461243d90616693565b801561248a5780601f1061245f5761010080835404028352916020019161248a565b820191906000526020600020905b81548152906001019060200180831161246d57829003601f168201915b5050505050905090565b61249d81613ef0565b50565b60008073ffffffffffffffffffffffffffffffffffffffff168273ffffffffffffffffffffffffffffffffffffffff161415612511576040517f08c379a000000000000000000000000000000000000000000000000000000000815260040161250890616132565b60405180910390fd5b612558600560008473ffffffffffffffffffffffffffffffffffffffff1673ffffffffffffffffffffffffffffffffffffffff168152602001908152602001600020613f0a565b9050919050565b6125676137c7565b73ffffffffffffffffffffffffffffffffffffffff1661258561294a565b73ffffffffffffffffffffffffffffffffffffffff16146125db576040517f08c379a00000000000000000000000000000000000000000000000000000000081526004016125d2906161d2565b60405180910390fd5b6125e56000613f1f565b565b601d5481565b6125f56137c7565b73ffffffffffffffffffffffffffffffffffffffff1661261361294a565b73ffffffffffffffffffffffffffffffffffffffff1614612669576040517f08c379a0000000000000000000000000000000000000000000000000000000008152600401612660906161d2565b60405180910390fd5b8060118190555050565b60145481565b614e3481106126bd576040517f08c379a00000000000000000000000000000000000000000000000000000000081526004016126b490616032565b60405180910390fd5b6126c56137c7565b73ffffffffffffffffffffffffffffffffffffffff166126e482611c8a565b73ffffffffffffffffffffffffffffffffffffffff16141561273b576040517f08c379a0000000000000000000000000000000000000000000000000000000008152600401612732906162f2565b60405180910390fd5b6127436137c7565b73ffffffffffffffffffffffffffffffffffffffff166003600083815260200190815260200160002060020160009054906101000a900473ffffffffffffffffffffffffffffffffffffffff1673ffffffffffffffffffffffffffffffffffffffff16146127e6576040517f08c379a00000000000000000000000000000000000000000000000000000000081526004016127dd906162f2565b60405180910390fd5b6040518060800160405280600015158152602001828152602001600073ffffffffffffffffffffffffffffffffffffffff16815260200160008152506003600083815260200190815260200160002060008201518160000160006101000a81548160ff0219169083151502179055506020820151816001015560408201518160020160006101000a81548173ffffffffffffffffffffffffffffffffffffffff021916908373ffffffffffffffffffffffffffffffffffffffff1602179055506060820151816003015590505060006128bd6137c7565b73ffffffffffffffffffffffffffffffffffffffff1660036000848152602001908152602001600020600301546040516128f690615e46565b60006040518083038185875af1925050503d8060008114612933576040519150601f19603f3d011682016040523d82523d6000602084013e612938565b606091505b505090508061294657600080fd5b5050565b6000600f60009054906101000a900473ffffffffffffffffffffffffffffffffffffffff16905090565b6000614e346129816111af565b106129c1576040517f08c379a00000000000000000000000000000000000000000000000000000000081526004016129b890616272565b60405180910390fd5b6129d660195483613fe590919063ffffffff16565b9050919050565b60115481565b6060600c80546129f290616693565b80601f0160208091040260200160405190810160405280929190818152602001828054612a1e90616693565b8015612a6b5780601f10612a4057610100808354040283529160200191612a6b565b820191906000526020600020905b815481529060010190602001808311612a4e57829003601f168201915b5050505050905090565b6000601660009054906101000a900473ffffffffffffffffffffffffffffffffffffffff16905090565b601f5481565b614e348110612ae9576040517f08c379a0000000000000000000000000000000000000000000000000000000008152600401612ae090616032565b60405180910390fd5b612af16137c7565b73ffffffffffffffffffffffffffffffffffffffff16612b1082611c8a565b73ffffffffffffffffffffffffffffffffffffffff161415612b67576040517f08c379a0000000000000000000000000000000000000000000000000000000008152600401612b5e906162f2565b60405180910390fd5b60036000828152602001908152602001600020600301543411612bbf576040517f08c379a0000000000000000000000000000000000000000000000000000000008152600401612bb6906162f2565b60405180910390fd5b6000600360008381526020019081526020016000206040518060800160405290816000820160009054906101000a900460ff16151515158152602001600182015481526020016002820160009054906101000a900473ffffffffffffffffffffffffffffffffffffffff1673ffffffffffffffffffffffffffffffffffffffff1673ffffffffffffffffffffffffffffffffffffffff1681526020016003820154815250509050600081606001511115612cd257806060015160046000836040015173ffffffffffffffffffffffffffffffffffffffff1673ffffffffffffffffffffffffffffffffffffffff1681526020019081526020016000206000828254612cca919061648c565b925050819055505b6040518060800160405280600115158152602001838152602001612cf46137c7565b73ffffffffffffffffffffffffffffffffffffffff168152602001348152506003600084815260200190815260200160002060008201518160000160006101000a81548160ff0219169083151502179055506020820151816001015560408201518160020160006101000a81548173ffffffffffffffffffffffffffffffffffffffff021916908373ffffffffffffffffffffffffffffffffffffffff160217905550606082015181600301559050505050565b612db06137c7565b73ffffffffffffffffffffffffffffffffffffffff168273ffffffffffffffffffffffffffffffffffffffff161415612e1e576040517f08c379a0000000000000000000000000000000000000000000000000000000008152600401612e1590616092565b60405180910390fd5b80600a6000612e2b6137c7565b73ffffffffffffffffffffffffffffffffffffffff1673ffffffffffffffffffffffffffffffffffffffff16815260200190815260200160002060008473ffffffffffffffffffffffffffffffffffffffff1673ffffffffffffffffffffffffffffffffffffffff16815260200190815260200160002060006101000a81548160ff0219169083151502179055508173ffffffffffffffffffffffffffffffffffffffff16612ed86137c7565b73ffffffffffffffffffffffffffffffffffffffff167f17307eab39ab6107e8899845ad3d59bd9653f200f220920489ca2b5937696c3183604051612f1d9190615edd565b60405180910390a35050565b601b5481565b601c5481565b612f3d6137c7565b73ffffffffffffffffffffffffffffffffffffffff16612f5b61294a565b73ffffffffffffffffffffffffffffffffffffffff1614612fb1576040517f08c379a0000000000000000000000000000000000000000000000000000000008152600401612fa8906161d2565b60405180910390fd5b612fba81613ffb565b50565b60195481565b612fd4612fce6137c7565b836138fe565b613013576040517f08c379a000000000000000000000000000000000000000000000000000000000815260040161300a90616312565b60405180910390fd5b61301f84848484613c53565b50505050565b601760009054906101000a900473ffffffffffffffffffffffffffffffffffffffff1673ffffffffffffffffffffffffffffffffffffffff163373ffffffffffffffffffffffffffffffffffffffff16146130b5576040517f08c379a00000000000000000000000000000000000000000000000000000000081526004016130ac90616372565b60405180910390fd5b60006003601f54106130cf57670429d069189e0000613117565b601a601f548154811061310b577f4e487b7100000000000000000000000000000000000000000000000000000000600052603260045260246000fd5b90600052602060002001545b905080601d541161315d576040517f08c379a000000000000000000000000000000000000000000000000000000000815260040161315490616152565b60405180910390fd5b80601d5461316b919061656d565b601d819055506001601f6000828254613184919061648c565b92505081905550613195600061403f565b3373ffffffffffffffffffffffffffffffffffffffff166108fc829081150290604051600060405180830381858888f193505050501580156131db573d6000803e3d6000fd5b5050565b6131f06131ea6137c7565b82614083565b50565b60606131fe826137cf565b61323d576040517f08c379a000000000000000000000000000000000000000000000000000000000815260040161323490616212565b60405180910390fd5b613245612402565b61324e83614275565b60405160200161325f929190615e22565b6040516020818303038152906040529050919050565b6020805461328290616693565b80601f01602080910402602001604051908101604052809291908181526020018280546132ae90616693565b80156132fb5780601f106132d0576101008083540402835291602001916132fb565b820191906000526020600020905b8154815290600101906020018083116132de57829003601f168201915b505050505081565b60036020528060005260406000206000915090508060000160009054906101000a900460ff16908060010154908060020160009054906101000a900473ffffffffffffffffffffffffffffffffffffffff16908060030154905084565b601660009054906101000a900473ffffffffffffffffffffffffffffffffffffffff1673ffffffffffffffffffffffffffffffffffffffff163373ffffffffffffffffffffffffffffffffffffffff16146133ba57600080fd5b6000601c5490506000601c819055503373ffffffffffffffffffffffffffffffffffffffff166108fc829081150290604051600060405180830381858888f1935050505015801561340f573d6000803e3d6000fd5b5050565b6000600a60008473ffffffffffffffffffffffffffffffffffffffff1673ffffffffffffffffffffffffffffffffffffffff16815260200190815260200160002060008373ffffffffffffffffffffffffffffffffffffffff1673ffffffffffffffffffffffffffffffffffffffff16815260200190815260200160002060009054906101000a900460ff16905092915050565b600a81565b6134b46137c7565b73ffffffffffffffffffffffffffffffffffffffff166134d261294a565b73ffffffffffffffffffffffffffffffffffffffff1614613528576040517f08c379a000000000000000000000000000000000000000000000000000000000815260040161351f906161d2565b60405180910390fd5b600073ffffffffffffffffffffffffffffffffffffffff168173ffffffffffffffffffffffffffffffffffffffff161415613598576040517f08c379a000000000000000000000000000000000000000000000000000000000815260040161358f90615ff2565b60405180910390fd5b6135a181613f1f565b50565b60125481565b60046020528060005260406000206000915090505481565b60135481565b6135d06137c7565b82614e348110613615576040517f08c379a000000000000000000000000000000000000000000000000000000000815260040161360c906162b2565b60405180910390fd5b8173ffffffffffffffffffffffffffffffffffffffff1661363582611c8a565b73ffffffffffffffffffffffffffffffffffffffff161461368b576040517f08c379a0000000000000000000000000000000000000000000000000000000008152600401613682906161f2565b60405180910390fd5b6040518060a001604052806001151581526020018581526020016136ad6137c7565b73ffffffffffffffffffffffffffffffffffffffff168152602001848152602001600073ffffffffffffffffffffffffffffffffffffffff168152506002600086815260200190815260200160002060008201518160000160006101000a81548160ff0219169083151502179055506020820151816001015560408201518160020160006101000a81548173ffffffffffffffffffffffffffffffffffffffff021916908373ffffffffffffffffffffffffffffffffffffffff1602179055506060820151816003015560808201518160040160006101000a81548173ffffffffffffffffffffffffffffffffffffffff021916908373ffffffffffffffffffffffffffffffffffffffff16021790555090505050505050565b600033905090565b60006137e582600661442290919063ffffffff16565b9050919050565b816009600083815260200190815260200160002060006101000a81548173ffffffffffffffffffffffffffffffffffffffff021916908373ffffffffffffffffffffffffffffffffffffffff160217905550808273ffffffffffffffffffffffffffffffffffffffff1661385f83611c8a565b73ffffffffffffffffffffffffffffffffffffffff167f8c5be1e5ebec7d5bd14f71427d1e84f3dd0314c0f7b2291e5b200ac8c7c3b92560405160405180910390a45050565b60006138b38260000161443c565b9050919050565b80601660006101000a81548173ffffffffffffffffffffffffffffffffffffffff021916908373ffffffffffffffffffffffffffffffffffffffff16021790555050565b6000613909826137cf565b613948576040517f08c379a000000000000000000000000000000000000000000000000000000000815260040161393f906160f2565b60405180910390fd5b600061395383611c8a565b90508073ffffffffffffffffffffffffffffffffffffffff168473ffffffffffffffffffffffffffffffffffffffff1614806139c257508373ffffffffffffffffffffffffffffffffffffffff166139aa84611012565b73ffffffffffffffffffffffffffffffffffffffff16145b806139d357506139d28185613413565b5b91505092915050565b8273ffffffffffffffffffffffffffffffffffffffff166139fc82611c8a565b73ffffffffffffffffffffffffffffffffffffffff1614613a52576040517f08c379a0000000000000000000000000000000000000000000000000000000008152600401613a49906161f2565b60405180910390fd5b600073ffffffffffffffffffffffffffffffffffffffff168273ffffffffffffffffffffffffffffffffffffffff161415613ac2576040517f08c379a0000000000000000000000000000000000000000000000000000000008152600401613ab990616072565b60405180910390fd5b613acd838383614451565b613ad86000826137ec565b613b2981600560008673ffffffffffffffffffffffffffffffffffffffff1673ffffffffffffffffffffffffffffffffffffffff16815260200190815260200160002061445690919063ffffffff16565b50613b7b81600560008573ffffffffffffffffffffffffffffffffffffffff1673ffffffffffffffffffffffffffffffffffffffff16815260200190815260200160002061447090919063ffffffff16565b50613b928183600661448a9092919063ffffffff16565b50808273ffffffffffffffffffffffffffffffffffffffff168473ffffffffffffffffffffffffffffffffffffffff167fddf252ad1be2c89b69c2b068fc378daa952ba7f163c4a11628f55a4df523b3ef60405160405180910390a4505050565b6000613c0283600001836144bf565b60001c905092915050565b80600e9080519060200190613c23929190614daf565b5050565b600080600080613c3a8660000186614510565b915091508160001c8160001c9350935050509250929050565b613c5e8484846139dc565b613c6a84848484614550565b613ca9576040517f08c379a0000000000000000000000000000000000000000000000000000000008152600401613ca090615fd2565b60405180910390fd5b50505050565b613ce9613ce4613cdf613cc06111af565b613cd0613ccb6111af565b613d20565b613cda919061674e565b6116f5565b611c8a565b6146b4565b565b6000613cfe846000018460001b846146c0565b60001c90509392505050565b60008183613d18919061648c565b905092915050565b6000814342613d2d6137c7565b604051602001613d3d9190615dd5565b6040516020818303038152906040528051906020012060001c613d6091906164e2565b454241604051602001613d739190615df0565b6040516020818303038152906040528051906020012060001c613d9691906164e2565b4442613da2919061648c565b613dac919061648c565b613db6919061648c565b613dc0919061648c565b613dca919061648c565b604051602001613dda9190615e5b565b6040516020818303038152906040528051906020012060001c613dfd91906164e2565b9050919050565b600080839050600060106000868152602001908152602001600020541115613e3d57601060008581526020019081526020016000205490505b826010600086815260200190815260200160002081905550600060106000858152602001908152602001600020541115613e9d57601060008481526020019081526020016000205460106000868152602001908152602001600020819055505b806010600085815260200190815260200160002081905550601060008581526020019081526020016000205491505092915050565b613eec828260405180602001604052806000815250614741565b5050565b8060209080519060200190613f06929190614daf565b5050565b6000613f188260000161479c565b9050919050565b6000600f60009054906101000a900473ffffffffffffffffffffffffffffffffffffffff16905081600f60006101000a81548173ffffffffffffffffffffffffffffffffffffffff021916908373ffffffffffffffffffffffffffffffffffffffff1602179055508173ffffffffffffffffffffffffffffffffffffffff168173ffffffffffffffffffffffffffffffffffffffff167f8be0079c531659141344cd1fd0a4f28419497f9722a3daafe3b4186f6b6457e060405160405180910390a35050565b60008183613ff39190616513565b905092915050565b80601860006101000a81548173ffffffffffffffffffffffffffffffffffffffff021916908373ffffffffffffffffffffffffffffffffffffffff16021790555050565b80601760006101000a81548173ffffffffffffffffffffffffffffffffffffffff021916908373ffffffffffffffffffffffffffffffffffffffff16021790555050565b8181614e3481106140c9576040517f08c379a00000000000000000000000000000000000000000000000000000000081526004016140c0906162b2565b60405180910390fd5b8173ffffffffffffffffffffffffffffffffffffffff166140e982611c8a565b73ffffffffffffffffffffffffffffffffffffffff161461413f576040517f08c379a0000000000000000000000000000000000000000000000000000000008152600401614136906161f2565b60405180910390fd5b6040518060a001604052806000151581526020018481526020018573ffffffffffffffffffffffffffffffffffffffff16815260200160008152602001600073ffffffffffffffffffffffffffffffffffffffff168152506002600085815260200190815260200160002060008201518160000160006101000a81548160ff0219169083151502179055506020820151816001015560408201518160020160006101000a81548173ffffffffffffffffffffffffffffffffffffffff021916908373ffffffffffffffffffffffffffffffffffffffff1602179055506060820151816003015560808201518160040160006101000a81548173ffffffffffffffffffffffffffffffffffffffff021916908373ffffffffffffffffffffffffffffffffffffffff16021790555090505050505050565b606060008214156142bd576040518060400160405280600181526020017f3000000000000000000000000000000000000000000000000000000000000000815250905061441d565b600082905060005b600082146142ef5780806142d8906166c5565b915050600a826142e891906164e2565b91506142c5565b60008167ffffffffffffffff811115614331577f4e487b7100000000000000000000000000000000000000000000000000000000600052604160045260246000fd5b6040519080825280601f01601f1916602001820160405280156143635781602001600182028036833780820191505090505b5090505b600085146144165760018261437c919061656d565b9150600a8561438b919061674e565b6030614397919061648c565b60f81b8183815181106143d3577f4e487b7100000000000000000000000000000000000000000000000000000000600052603260045260246000fd5b60200101907effffffffffffffffffffffffffffffffffffffffffffffffffffffffffffff1916908160001a905350600a8561440f91906164e2565b9450614367565b8093505050505b919050565b6000614434836000018360001b6147ad565b905092915050565b600061444a826000016147cd565b9050919050565b505050565b6000614468836000018360001b6147e2565b905092915050565b6000614482836000018360001b614968565b905092915050565b60006144b6846000018460001b8473ffffffffffffffffffffffffffffffffffffffff1660001b6149d8565b90509392505050565b60008260000182815481106144fd577f4e487b7100000000000000000000000000000000000000000000000000000000600052603260045260246000fd5b9060005260206000200154905092915050565b600080600061452b8486600001614a1390919063ffffffff16565b9050808560020160008381526020019081526020016000205492509250509250929050565b60006145718473ffffffffffffffffffffffffffffffffffffffff16614a2a565b61457e57600190506146ac565b600061464563150b7a0260e01b6145936137c7565b8887876040516024016145a99493929190615e91565b604051602081830303815290604052907bffffffffffffffffffffffffffffffffffffffffffffffffffffffff19166020820180517bffffffffffffffffffffffffffffffffffffffffffffffffffffffff83818316178352505050506040518060600160405280603281526020016168cd603291398773ffffffffffffffffffffffffffffffffffffffff16614a3d9092919063ffffffff16565b905060008180602001905181019061465d91906151ac565b905063150b7a0260e01b7bffffffffffffffffffffffffffffffffffffffffffffffffffffffff1916817bffffffffffffffffffffffffffffffffffffffffffffffffffffffff191614925050505b949350505050565b6146bd8161403f565b50565b6000808460020160008581526020019081526020016000205490506000801b811415806146f357506146f285856147ad565b5b8390614735576040517f08c379a000000000000000000000000000000000000000000000000000000000815260040161472c9190615f90565b60405180910390fd5b50809150509392505050565b61474b8383614a55565b6147586000848484614550565b614797576040517f08c379a000000000000000000000000000000000000000000000000000000000815260040161478e90615fd2565b60405180910390fd5b505050565b600081600001805490509050919050565b60006147c58284600001614be390919063ffffffff16565b905092915050565b60006147db8260000161479c565b9050919050565b6000808360010160008481526020019081526020016000205490506000811461495c576000600182614814919061656d565b905060006001866000018054905061482c919061656d565b90508181146148e7576000866000018281548110614873577f4e487b7100000000000000000000000000000000000000000000000000000000600052603260045260246000fd5b90600052602060002001549050808760000184815481106148bd577f4e487b7100000000000000000000000000000000000000000000000000000000600052603260045260246000fd5b90600052602060002001819055508387600101600083815260200190815260200160002081905550505b85600001805480614921577f4e487b7100000000000000000000000000000000000000000000000000000000600052603160045260246000fd5b600190038181906000526020600020016000905590558560010160008681526020019081526020016000206000905560019350505050614962565b60009150505b92915050565b60006149748383614bfa565b6149cd5782600001829080600181540180825580915050600190039060005260206000200160009091909190915055826000018054905083600101600084815260200190815260200160002081905550600190506149d2565b600090505b92915050565b60008184600201600085815260200190815260200160002081905550614a0a8385600001614c1d90919063ffffffff16565b90509392505050565b6000614a2283600001836144bf565b905092915050565b600080823b905060008111915050919050565b6060614a4c8484600085614c34565b90509392505050565b600073ffffffffffffffffffffffffffffffffffffffff168273ffffffffffffffffffffffffffffffffffffffff161415614ac5576040517f08c379a0000000000000000000000000000000000000000000000000000000008152600401614abc90616172565b60405180910390fd5b614ace816137cf565b15614b0e576040517f08c379a0000000000000000000000000000000000000000000000000000000008152600401614b0590616052565b60405180910390fd5b614b1a60008383614451565b614b6b81600560008573ffffffffffffffffffffffffffffffffffffffff1673ffffffffffffffffffffffffffffffffffffffff16815260200190815260200160002061447090919063ffffffff16565b50614b828183600661448a9092919063ffffffff16565b50808273ffffffffffffffffffffffffffffffffffffffff16600073ffffffffffffffffffffffffffffffffffffffff167fddf252ad1be2c89b69c2b068fc378daa952ba7f163c4a11628f55a4df523b3ef60405160405180910390a45050565b6000614bf28360000183614bfa565b905092915050565b600080836001016000848152602001908152602001600020541415905092915050565b6000614c2c8360000183614968565b905092915050565b606082471015614c79576040517f08c379a0000000000000000000000000000000000000000000000000000000008152600401614c70906160d2565b60405180910390fd5b614c8285614a2a565b614cc1576040517f08c379a0000000000000000000000000000000000000000000000000000000008152600401614cb890616332565b60405180910390fd5b6000808673ffffffffffffffffffffffffffffffffffffffff168587604051614cea9190615e0b565b60006040518083038185875af1925050503d8060008114614d27576040519150601f19603f3d011682016040523d82523d6000602084013e614d2c565b606091505b5091509150614d3c828286614d48565b92505050949350505050565b60608315614d5857829050614da8565b600083511115614d6b5782518084602001fd5b816040517f08c379a0000000000000000000000000000000000000000000000000000000008152600401614d9f9190615f90565b60405180910390fd5b9392505050565b828054614dbb90616693565b90600052602060002090601f016020900481019282614ddd5760008555614e24565b82601f10614df657805160ff1916838001178555614e24565b82800160010185558215614e24579182015b82811115614e23578251825591602001919060010190614e08565b5b509050614e319190614e35565b5090565b5b80821115614e4e576000816000905550600101614e36565b5090565b6000614e65614e60846163de565b6163ad565b905082815260208101848484011115614e7d57600080fd5b614e88848285616627565b509392505050565b6000614ea3614e9e8461640e565b6163ad565b905082815260208101848484011115614ebb57600080fd5b614ec6848285616627565b509392505050565b600081359050614edd81616859565b92915050565b600081359050614ef281616870565b92915050565b600081359050614f0781616887565b92915050565b600081359050614f1c8161689e565b92915050565b600081519050614f318161689e565b92915050565b600082601f830112614f4857600080fd5b8135614f58848260208601614e52565b91505092915050565b600082601f830112614f7257600080fd5b8135614f82848260208601614e90565b91505092915050565b600081359050614f9a816168b5565b92915050565b600060208284031215614fb257600080fd5b6000614fc084828501614ece565b91505092915050565b60008060408385031215614fdc57600080fd5b6000614fea85828601614ee3565b9250506020614ffb85828601614f8b565b9150509250929050565b6000806040838503121561501857600080fd5b600061502685828601614ece565b925050602061503785828601614ece565b9150509250929050565b60008060006060848603121561505657600080fd5b600061506486828701614ece565b935050602061507586828701614ece565b925050604061508686828701614f8b565b9150509250925092565b600080600080608085870312156150a657600080fd5b60006150b487828801614ece565b94505060206150c587828801614ece565b93505060406150d687828801614f8b565b925050606085013567ffffffffffffffff8111156150f357600080fd5b6150ff87828801614f37565b91505092959194509250565b6000806040838503121561511e57600080fd5b600061512c85828601614ece565b925050602061513d85828601614ef8565b9150509250929050565b6000806040838503121561515a57600080fd5b600061516885828601614ece565b925050602061517985828601614f8b565b9150509250929050565b60006020828403121561519557600080fd5b60006151a384828501614f0d565b91505092915050565b6000602082840312156151be57600080fd5b60006151cc84828501614f22565b91505092915050565b6000602082840312156151e757600080fd5b600082013567ffffffffffffffff81111561520157600080fd5b61520d84828501614f61565b91505092915050565b60006020828403121561522857600080fd5b600061523684828501614f8b565b91505092915050565b6000806040838503121561525257600080fd5b600061526085828601614f8b565b925050602061527185828601614f8b565b9150509250929050565b61528c615287826165b3565b616720565b82525050565b61529b816165a1565b82525050565b6152b26152ad826165a1565b61670e565b82525050565b6152c1816165c5565b82525050565b60006152d28261643e565b6152dc8185616454565b93506152ec818560208601616636565b6152f58161683b565b840191505092915050565b600061530b8261643e565b6153158185616465565b9350615325818560208601616636565b80840191505092915050565b600061533c82616449565b6153468185616470565b9350615356818560208601616636565b61535f8161683b565b840191505092915050565b600061537582616449565b61537f8185616481565b935061538f818560208601616636565b80840191505092915050565b60006153a8602483616470565b91507f416d6f756e74206f662045746865722073656e74206973206e6f7420636f727260008301527f6563742e000000000000000000000000000000000000000000000000000000006020830152604082019050919050565b600061540e603283616470565b91507f4552433732313a207472616e7366657220746f206e6f6e20455243373231526560008301527f63656976657220696d706c656d656e74657200000000000000000000000000006020830152604082019050919050565b6000615474602683616470565b91507f4f776e61626c653a206e6577206f776e657220697320746865207a65726f206160008301527f64647265737300000000000000000000000000000000000000000000000000006020830152604082019050919050565b60006154da603583616470565b91507f45786365656473206d6178696d756d20737570706c792e20506c65617365207460008301527f727920746f206d696e74206c657373204e6674732e00000000000000000000006020830152604082019050919050565b6000615540600383616470565b91507f4f757400000000000000000000000000000000000000000000000000000000006000830152602082019050919050565b6000615580601c83616470565b91507f4552433732313a20746f6b656e20616c7265616479206d696e746564000000006000830152602082019050919050565b60006155c0602483616470565b91507f4552433732313a207472616e7366657220746f20746865207a65726f2061646460008301527f72657373000000000000000000000000000000000000000000000000000000006020830152604082019050919050565b6000615626601983616470565b91507f4552433732313a20617070726f766520746f2063616c6c6572000000000000006000830152602082019050919050565b6000615666600e83616470565b91507f556e61626c6520746f2073656c6c0000000000000000000000000000000000006000830152602082019050919050565b60006156a6602683616470565b91507f416464726573733a20696e73756666696369656e742062616c616e636520666f60008301527f722063616c6c00000000000000000000000000000000000000000000000000006020830152604082019050919050565b600061570c602c83616470565b91507f4552433732313a206f70657261746f7220717565727920666f72206e6f6e657860008301527f697374656e7420746f6b656e00000000000000000000000000000000000000006020830152604082019050919050565b6000615772603883616470565b91507f4552433732313a20617070726f76652063616c6c6572206973206e6f74206f7760008301527f6e6572206e6f7220617070726f76656420666f7220616c6c00000000000000006020830152604082019050919050565b60006157d8602a83616470565b91507f4552433732313a2062616c616e636520717565727920666f7220746865207a6560008301527f726f2061646472657373000000000000000000000000000000000000000000006020830152604082019050919050565b600061583e601b83616470565b91507f4e6f7420656e6f756768204275726765727320736f6c642079657400000000006000830152602082019050919050565b600061587e602083616470565b91507f4552433732313a206d696e7420746f20746865207a65726f20616464726573736000830152602082019050919050565b60006158be602c83616470565b91507f4552433732313a20617070726f76656420717565727920666f72206e6f6e657860008301527f697374656e7420746f6b656e00000000000000000000000000000000000000006020830152604082019050919050565b6000615924602a83616470565b91507f596f752063616e6e6f74206d696e74206d6f7265207468616e203230204e667460008301527f7320706572206f6e6365000000000000000000000000000000000000000000006020830152604082019050919050565b600061598a602083616470565b91507f4f776e61626c653a2063616c6c6572206973206e6f7420746865206f776e65726000830152602082019050919050565b60006159ca602983616470565b91507f4552433732313a207472616e73666572206f6620746f6b656e2074686174206960008301527f73206e6f74206f776e00000000000000000000000000000000000000000000006020830152604082019050919050565b6000615a30602f83616470565b91507f4552433732314d657461646174613a2055524920717565727920666f72206e6f60008301527f6e6578697374656e7420746f6b656e00000000000000000000000000000000006020830152604082019050919050565b6000615a96600783616470565b91507f4e6f2053616c65000000000000000000000000000000000000000000000000006000830152602082019050919050565b6000615ad6602183616470565b91507f4552433732313a20617070726f76616c20746f2063757272656e74206f776e6560008301527f72000000000000000000000000000000000000000000000000000000000000006020830152604082019050919050565b6000615b3c601783616470565b91507f53616c652068617320616c726561647920656e6465642e0000000000000000006000830152602082019050919050565b6000615b7c601783616470565b91507f596f752063616e6e6f74206d696e742030204e6674732e0000000000000000006000830152602082019050919050565b6000615bbc600e83616470565b91507f4f7574206f6620746f6b656e49640000000000000000000000000000000000006000830152602082019050919050565b6000615bfc601383616470565b91507f496e73756666696369656e7420616d6f756e74000000000000000000000000006000830152602082019050919050565b6000615c3c600083616465565b9150600082019050919050565b6000615c56600783616470565b91507f496e76616c6964000000000000000000000000000000000000000000000000006000830152602082019050919050565b6000615c96603183616470565b91507f4552433732313a207472616e736665722063616c6c6572206973206e6f74206f60008301527f776e6572206e6f7220617070726f7665640000000000000000000000000000006020830152604082019050919050565b6000615cfc601d83616470565b91507f416464726573733a2063616c6c20746f206e6f6e2d636f6e74726163740000006000830152602082019050919050565b6000615d3c600a83616470565b91507f4e6f742073656c6c6572000000000000000000000000000000000000000000006000830152602082019050919050565b6000615d7c601483616470565b91507f41646472657373206e6f7420456c696769626c650000000000000000000000006000830152602082019050919050565b615db88161661d565b82525050565b615dcf615dca8261661d565b616744565b82525050565b6000615de182846152a1565b60148201915081905092915050565b6000615dfc828461527b565b60148201915081905092915050565b6000615e178284615300565b915081905092915050565b6000615e2e828561536a565b9150615e3a828461536a565b91508190509392505050565b6000615e5182615c2f565b9150819050919050565b6000615e678284615dbe565b60208201915081905092915050565b6000602082019050615e8b6000830184615292565b92915050565b6000608082019050615ea66000830187615292565b615eb36020830186615292565b615ec06040830185615daf565b8181036060830152615ed281846152c7565b905095945050505050565b6000602082019050615ef260008301846152b8565b92915050565b6000608082019050615f0d60008301876152b8565b615f1a6020830186615daf565b615f276040830185615292565b615f346060830184615daf565b95945050505050565b600060a082019050615f5260008301886152b8565b615f5f6020830187615daf565b615f6c6040830186615292565b615f796060830185615daf565b615f866080830184615292565b9695505050505050565b60006020820190508181036000830152615faa8184615331565b905092915050565b60006020820190508181036000830152615fcb8161539b565b9050919050565b60006020820190508181036000830152615feb81615401565b9050919050565b6000602082019050818103600083015261600b81615467565b9050919050565b6000602082019050818103600083015261602b816154cd565b9050919050565b6000602082019050818103600083015261604b81615533565b9050919050565b6000602082019050818103600083015261606b81615573565b9050919050565b6000602082019050818103600083015261608b816155b3565b9050919050565b600060208201905081810360008301526160ab81615619565b9050919050565b600060208201905081810360008301526160cb81615659565b9050919050565b600060208201905081810360008301526160eb81615699565b9050919050565b6000602082019050818103600083015261610b816156ff565b9050919050565b6000602082019050818103600083015261612b81615765565b9050919050565b6000602082019050818103600083015261614b816157cb565b9050919050565b6000602082019050818103600083015261616b81615831565b9050919050565b6000602082019050818103600083015261618b81615871565b9050919050565b600060208201905081810360008301526161ab816158b1565b9050919050565b600060208201905081810360008301526161cb81615917565b9050919050565b600060208201905081810360008301526161eb8161597d565b9050919050565b6000602082019050818103600083015261620b816159bd565b9050919050565b6000602082019050818103600083015261622b81615a23565b9050919050565b6000602082019050818103600083015261624b81615a89565b9050919050565b6000602082019050818103600083015261626b81615ac9565b9050919050565b6000602082019050818103600083015261628b81615b2f565b9050919050565b600060208201905081810360008301526162ab81615b6f565b9050919050565b600060208201905081810360008301526162cb81615baf565b9050919050565b600060208201905081810360008301526162eb81615bef565b9050919050565b6000602082019050818103600083015261630b81615c49565b9050919050565b6000602082019050818103600083015261632b81615c89565b9050919050565b6000602082019050818103600083015261634b81615cef565b9050919050565b6000602082019050818103600083015261636b81615d2f565b9050919050565b6000602082019050818103600083015261638b81615d6f565b9050919050565b60006020820190506163a76000830184615daf565b92915050565b6000604051905081810181811067ffffffffffffffff821117156163d4576163d361680c565b5b8060405250919050565b600067ffffffffffffffff8211156163f9576163f861680c565b5b601f19601f8301169050602081019050919050565b600067ffffffffffffffff8211156164295761642861680c565b5b601f19601f8301169050602081019050919050565b600081519050919050565b600081519050919050565b600082825260208201905092915050565b600081905092915050565b600082825260208201905092915050565b600081905092915050565b60006164978261661d565b91506164a28361661d565b9250827fffffffffffffffffffffffffffffffffffffffffffffffffffffffffffffffff038211156164d7576164d661677f565b5b828201905092915050565b60006164ed8261661d565b91506164f88361661d565b925082616508576165076167ae565b5b828204905092915050565b600061651e8261661d565b91506165298361661d565b9250817fffffffffffffffffffffffffffffffffffffffffffffffffffffffffffffffff04831182151516156165625761656161677f565b5b828202905092915050565b60006165788261661d565b91506165838361661d565b9250828210156165965761659561677f565b5b828203905092915050565b60006165ac826165fd565b9050919050565b60006165be826165fd565b9050919050565b60008115159050919050565b60007fffffffff0000000000000000000000000000000000000000000000000000000082169050919050565b600073ffffffffffffffffffffffffffffffffffffffff82169050919050565b6000819050919050565b82818337600083830152505050565b60005b83811015616654578082015181840152602081019050616639565b83811115616663576000848401525b50505050565b60006166748261661d565b915060008214156166885761668761677f565b5b600182039050919050565b600060028204905060018216806166ab57607f821691505b602082108114156166bf576166be6167dd565b5b50919050565b60006166d08261661d565b91507fffffffffffffffffffffffffffffffffffffffffffffffffffffffffffffffff8214156167035761670261677f565b5b600182019050919050565b600061671982616732565b9050919050565b600061672b82616732565b9050919050565b600061673d8261684c565b9050919050565b6000819050919050565b60006167598261661d565b91506167648361661d565b925082616774576167736167ae565b5b828206905092915050565b7f4e487b7100000000000000000000000000000000000000000000000000000000600052601160045260246000fd5b7f4e487b7100000000000000000000000000000000000000000000000000000000600052601260045260246000fd5b7f4e487b7100000000000000000000000000000000000000000000000000000000600052602260045260246000fd5b7f4e487b7100000000000000000000000000000000000000000000000000000000600052604160045260246000fd5b6000601f19601f8301169050919050565b60008160601b9050919050565b616862816165a1565b811461686d57600080fd5b50565b616879816165b3565b811461688457600080fd5b50565b616890816165c5565b811461689b57600080fd5b50565b6168a7816165d1565b81146168b257600080fd5b50565b6168be8161661d565b81146168c957600080fd5b5056fe4552433732313a207472616e7366657220746f206e6f6e20455243373231526563656976657220696d706c656d656e7465724552433732313a206f776e657220717565727920666f72206e6f6e6578697374656e7420746f6b656ea2646970667358221220d46120db174739c27f7b47bbf07cd2771096990f494634fbfa24f6a48f96da3364736f6c63430008000033",
  "immutableReferences": {},
  "source": "\n\n// SPDX-License-Identifier: MIT\n\npragma solidity ^0.8.0;\n\n\n\nimport \"openzeppelin-solidity/contracts/access/Ownable.sol\";\n\nimport \"openzeppelin-solidity/contracts/utils/Context.sol\";\n\nimport \"openzeppelin-solidity/contracts/utils/math/SafeMath.sol\";\n\nimport \"openzeppelin-solidity/contracts/interfaces/IERC165.sol\";\n\nimport \"openzeppelin-solidity/contracts/interfaces/IERC721.sol\";\n\nimport \"openzeppelin-solidity/contracts/interfaces/IERC721Enumerable.sol\";\n\nimport \"openzeppelin-solidity/contracts/interfaces/IERC721Metadata.sol\";\n\nimport \"openzeppelin-solidity/contracts/interfaces/IERC721Receiver.sol\";\n\nimport \"openzeppelin-solidity/contracts/utils/Address.sol\";\n\nimport \"openzeppelin-solidity/contracts/utils/structs/EnumerableMap.sol\";\n\nimport \"openzeppelin-solidity/contracts/utils/Strings.sol\";\n\n\n\nabstract contract ERC165 is IERC165 {\n    /*\n     * bytes4(keccak256('supportsInterface(bytes4)')) == 0x01ffc9a7\n     */\n    bytes4 private constant _INTERFACE_ID_ERC165 = 0x01ffc9a7;\n\n    /**\n     * @dev Mapping of interface ids to whether or not it's supported.\n     */\n    mapping(bytes4 => bool) private _supportedInterfaces;\n\n    constructor ()  {\n        // Derived contracts need only register support for their own interfaces,\n        // we register support for ERC165 itself here\n        _registerInterface(_INTERFACE_ID_ERC165);\n    }\n\n    /**\n     * @dev See {IERC165-supportsInterface}.\n     *\n     * Time complexity O(1), guaranteed to always use less than 30 000 gas.\n     */\n    function supportsInterface(bytes4 interfaceId) public view virtual override returns (bool) {\n        return _supportedInterfaces[interfaceId];\n    }\n\n    /**\n     * @dev Registers the contract as an implementer of the interface defined by\n     * `interfaceId`. Support of the actual ERC165 interface is automatic and\n     * registering its interface id is not required.\n     *\n     * See {IERC165-supportsInterface}.\n     *\n     * Requirements:\n     *\n     * - `interfaceId` cannot be the ERC165 invalid interface (`0xffffffff`).\n     */\n    function _registerInterface(bytes4 interfaceId) internal virtual {\n        require(interfaceId != 0xffffffff, \"ERC165: invalid interface id\");\n        _supportedInterfaces[interfaceId] = true;\n    }\n}\n\n\n\n/**\n * @title ERC721 Non-Fungible Token Standard basic implementation\n * @dev see https://eips.ethereum.org/EIPS/eip-721\n */\ncontract ERC721 is Context, ERC165, IERC721, IERC721Metadata, IERC721Enumerable {\n    using SafeMath for uint256;\n    using Address for address;\n    using EnumerableSet for EnumerableSet.UintSet;\n    using EnumerableMap for EnumerableMap.UintToAddressMap;\n    using Strings for uint256;\n\n    modifier onlyTradableTexugo (address from, uint256 tokenId) {\n        require(tokenId < 20020, \"Out of tokenId\");\n        require(ownerOf(tokenId) == from, \"ERC721: transfer of token that is not own\");\n        _;\n    }\n\n    struct Offer {\n        bool isForSale;\n        uint256 texugoIndex;\n        address seller;\n        uint256 minValue;       \n        address onlySellTo;\n    }\n    struct Bid {\n        bool hasBid;\n        uint256 texugoIndex;\n        address bidder;\n        uint256 value;\n    }\n    mapping(uint256 => uint256) private assignOrders;\n    mapping (uint256 => Offer) public texugosOfferedForSale;\n    mapping (uint256 => Bid) public texugoBids;\n    mapping (address => uint256) public pendingWithdrawals;\n\n    // Equals to `bytes4(keccak256(\"onERC721Received(address,address,uint256,bytes)\"))`\n    // which can be also obtained as `IERC721Receiver(0).onERC721Received.selector`\n    bytes4 private constant _ERC721_RECEIVED = 0x150b7a02;\n\n    // Mapping from holder address to their (enumerable) set of owned tokens\n    mapping (address => EnumerableSet.UintSet) private _holderTokens;\n\n    // Enumerable mapping from token ids to their owners\n    EnumerableMap.UintToAddressMap private _tokenOwners;\n\n    // Mapping from token ID to approved address\n    mapping (uint256 => address) private _tokenApprovals;\n\n    // Mapping from owner to operator approvals\n    mapping (address => mapping (address => bool)) private _operatorApprovals;\n\n    // Token name\n    string private _name;\n\n    // Token symbol\n    string private _symbol;\n\n    // Optional mapping for token URIs\n    mapping (uint256 => string) private _tokenURIs;\n\n    // Base URI\n    string private _baseURI;\n\n    /*\n     *     bytes4(keccak256('balanceOf(address)')) == 0x70a08231\n     *     bytes4(keccak256('ownerOf(uint256)')) == 0x6352211e\n     *     bytes4(keccak256('approve(address,uint256)')) == 0x095ea7b3\n     *     bytes4(keccak256('getApproved(uint256)')) == 0x081812fc\n     *     bytes4(keccak256('setApprovalForAll(address,bool)')) == 0xa22cb465\n     *     bytes4(keccak256('isApprovedForAll(address,address)')) == 0xe985e9c5\n     *     bytes4(keccak256('transferFrom(address,address,uint256)')) == 0x23b872dd\n     *     bytes4(keccak256('safeTransferFrom(address,address,uint256)')) == 0x42842e0e\n     *     bytes4(keccak256('safeTransferFrom(address,address,uint256,bytes)')) == 0xb88d4fde\n     *\n     *     => 0x70a08231 ^ 0x6352211e ^ 0x095ea7b3 ^ 0x081812fc ^\n     *        0xa22cb465 ^ 0xe985e9c5 ^ 0x23b872dd ^ 0x42842e0e ^ 0xb88d4fde == 0x80ac58cd\n     */\n    bytes4 private constant _INTERFACE_ID_ERC721 = 0x80ac58cd;\n\n    /*\n     *     bytes4(keccak256('name()')) == 0x06fdde03\n     *     bytes4(keccak256('symbol()')) == 0x95d89b41\n     *     bytes4(keccak256('tokenURI(uint256)')) == 0xc87b56dd\n     *\n     *     => 0x06fdde03 ^ 0x95d89b41 ^ 0xc87b56dd == 0x5b5e139f\n     */\n    bytes4 private constant _INTERFACE_ID_ERC721_METADATA = 0x5b5e139f;\n\n    /*\n     *     bytes4(keccak256('totalSupply()')) == 0x18160ddd\n     *     bytes4(keccak256('tokenOfOwnerByIndex(address,uint256)')) == 0x2f745c59\n     *     bytes4(keccak256('tokenByIndex(uint256)')) == 0x4f6ccce7\n     *\n     *     => 0x18160ddd ^ 0x2f745c59 ^ 0x4f6ccce7 == 0x780e9d63\n     */\n    bytes4 private constant _INTERFACE_ID_ERC721_ENUMERABLE = 0x780e9d63;\n\n    /**\n     * @dev Initializes the contract by setting a `name` and a `symbol` to the token collection.\n     */\n    constructor (string memory name_, string memory symbol_)  {\n        _name = name_;\n        _symbol = symbol_;\n\n        // register the supported interfaces to conform to ERC721 via ERC165\n        _registerInterface(_INTERFACE_ID_ERC721);\n        _registerInterface(_INTERFACE_ID_ERC721_METADATA);\n        _registerInterface(_INTERFACE_ID_ERC721_ENUMERABLE);\n    }\n\n    /**\n     * @dev See {IERC721-balanceOf}.\n     */\n    function balanceOf(address owner) public view virtual override returns (uint256) {\n        require(owner != address(0), \"ERC721: balance query for the zero address\");\n        return _holderTokens[owner].length();\n    }\n\n    /**\n     * @dev See {IERC721-ownerOf}.\n     */\n    function ownerOf(uint256 tokenId) public view virtual override returns (address) {\n        return _tokenOwners.get(tokenId, \"ERC721: owner query for nonexistent token\");\n    }\n\n    /**\n     * @dev See {IERC721Metadata-name}.\n     */\n    function name() public view virtual override returns (string memory) {\n        return _name;\n    }\n\n    /**\n     * @dev See {IERC721Metadata-symbol}.\n     */\n    function symbol() public view virtual override returns (string memory) {\n        return _symbol;\n    }\n\n    /**\n     * @dev See {IERC721Metadata-tokenURI}.\n     */\n    function tokenURI(uint256 tokenId) public view virtual override returns (string memory) {\n        require(_exists(tokenId), \"ERC721Metadata: URI query for nonexistent token\");\n\n        string memory _tokenURI = _tokenURIs[tokenId];\n        string memory base = baseURI();\n\n        // If there is no base URI, return the token URI.\n        if (bytes(base).length == 0) {\n            return _tokenURI;\n        }\n        // If both are set, concatenate the baseURI and tokenURI (via abi.encodePacked).\n        if (bytes(_tokenURI).length > 0) {\n            return string(abi.encodePacked(base, _tokenURI));\n        }\n        // If there is a baseURI but no tokenURI, concatenate the tokenID to the baseURI.\n        return string(abi.encodePacked(base, tokenId.toString()));\n    }\n\n    /**\n    * @dev Returns the base URI set via {_setBaseURI}. This will be\n    * automatically added as a prefix in {tokenURI} to each token's URI, or\n    * to the token ID if no specific URI is set for that token ID.\n    */\n    function baseURI() public view virtual returns (string memory) {\n        return _baseURI;\n    }\n\n    /**\n     * @dev See {IERC721Enumerable-tokenOfOwnerByIndex}.\n     */\n    function tokenOfOwnerByIndex(address owner, uint256 index) public view virtual override returns (uint256) {\n        return _holderTokens[owner].at(index);\n    }\n\n    /**\n     * @dev See {IERC721Enumerable-totalSupply}.\n     */\n    function totalSupply() public view virtual override returns (uint256) {\n        // _tokenOwners are indexed by tokenIds, so .length() returns the number of tokenIds\n        return _tokenOwners.length();\n    }\n\n    /**\n     * @dev See {IERC721Enumerable-tokenByIndex}.\n     */\n    function tokenByIndex(uint256 index) public view virtual override returns (uint256) {\n        (uint256 tokenId, ) = _tokenOwners.at(index);\n        return tokenId;\n    }\n\n    /**\n     * @dev See {IERC721-approve}.\n     */\n    function approve(address to, uint256 tokenId) public virtual override {\n        address owner = ERC721.ownerOf(tokenId);\n        require(to != owner, \"ERC721: approval to current owner\");\n\n        require(_msgSender() == owner || ERC721.isApprovedForAll(owner, _msgSender()),\n            \"ERC721: approve caller is not owner nor approved for all\"\n        );\n\n        _approve(to, tokenId);\n    }\n\n    /**\n     * @dev See {IERC721-getApproved}.\n     */\n    function getApproved(uint256 tokenId) public view virtual override returns (address) {\n        require(_exists(tokenId), \"ERC721: approved query for nonexistent token\");\n\n        return _tokenApprovals[tokenId];\n    }\n\n    /**\n     * @dev See {IERC721-setApprovalForAll}.\n     */\n    function setApprovalForAll(address operator, bool approved) public virtual override {\n        require(operator != _msgSender(), \"ERC721: approve to caller\");\n\n        _operatorApprovals[_msgSender()][operator] = approved;\n        emit ApprovalForAll(_msgSender(), operator, approved);\n    }\n\n    /**\n     * @dev See {IERC721-isApprovedForAll}.\n     */\n    function isApprovedForAll(address owner, address operator) public view virtual override returns (bool) {\n        return _operatorApprovals[owner][operator];\n    }\n\n    /**\n     * @dev See {IERC721-transferFrom}.\n     */\n    function transferFrom(address from, address to, uint256 tokenId) public virtual override {\n        //solhint-disable-next-line max-line-length\n        require(_isApprovedOrOwner(_msgSender(), tokenId), \"ERC721: transfer caller is not owner nor approved\");\n\n        _transfer(from, to, tokenId);\n    }\n\n    /**\n     * @dev See {IERC721-safeTransferFrom}.\n     */\n    function safeTransferFrom(address from, address to, uint256 tokenId) public virtual override {\n        safeTransferFrom(from, to, tokenId, \"\");\n    }\n\n    /**\n     * @dev See {IERC721-safeTransferFrom}.\n     */\n    function safeTransferFrom(address from, address to, uint256 tokenId, bytes memory _data) public virtual override {\n        require(_isApprovedOrOwner(_msgSender(), tokenId), \"ERC721: transfer caller is not owner nor approved\");\n        _safeTransfer(from, to, tokenId, _data);\n    }\n\n    /**\n     * @dev Safely transfers `tokenId` token from `from` to `to`, checking first that contract recipients\n     * are aware of the ERC721 protocol to prevent tokens from being forever locked.\n     *\n     * `_data` is additional data, it has no specified format and it is sent in call to `to`.\n     *\n     * This internal function is equivalent to {safeTransferFrom}, and can be used to e.g.\n     * implement alternative mechanisms to perform token transfer, such as signature-based.\n     *\n     * Requirements:\n     *\n     * - `from` cannot be the zero address.\n     * - `to` cannot be the zero address.\n     * - `tokenId` token must exist and be owned by `from`.\n     * - If `to` refers to a smart contract, it must implement {IERC721Receiver-onERC721Received}, which is called upon a safe transfer.\n     *\n     * Emits a {Transfer} event.\n     */\n    function _safeTransfer(address from, address to, uint256 tokenId, bytes memory _data) internal virtual {\n        _transfer(from, to, tokenId);\n        require(_checkOnERC721Received(from, to, tokenId, _data), \"ERC721: transfer to non ERC721Receiver implementer\");\n    }\n\n    /**\n     * @dev Returns whether `tokenId` exists.\n     *\n     * Tokens can be managed by their owner or approved accounts via {approve} or {setApprovalForAll}.\n     *\n     * Tokens start existing when they are minted (`_mint`),\n     * and stop existing when they are burned (`_burn`).\n     */\n    function _exists(uint256 tokenId) internal view virtual returns (bool) {\n        return _tokenOwners.contains(tokenId);\n    }\n\n    /**\n     * @dev Returns whether `spender` is allowed to manage `tokenId`.\n     *\n     * Requirements:\n     *\n     * - `tokenId` must exist.\n     */\n    function _isApprovedOrOwner(address spender, uint256 tokenId) internal view virtual returns (bool) {\n        require(_exists(tokenId), \"ERC721: operator query for nonexistent token\");\n        address owner = ERC721.ownerOf(tokenId);\n        return (spender == owner || getApproved(tokenId) == spender || ERC721.isApprovedForAll(owner, spender));\n    }\n\n    /**\n     * @dev Safely mints `tokenId` and transfers it to `to`.\n     *\n     * Requirements:\n     d*\n     * - `tokenId` must not exist.\n     * - If `to` refers to a smart contract, it must implement {IERC721Receiver-onERC721Received}, which is called upon a safe transfer.\n     *\n     * Emits a {Transfer} event.\n     */\n    function _safeMint(address to, uint256 tokenId) internal virtual {\n        _safeMint(to, tokenId, \"\");\n    }\n\n    /**\n     * @dev Same as {xref-ERC721-_safeMint-address-uint256-}[`_safeMint`], with an additional `data` parameter which is\n     * forwarded in {IERC721Receiver-onERC721Received} to contract recipients.\n     */\n    function _safeMint(address to, uint256 tokenId, bytes memory _data) internal virtual {\n        _mint(to, tokenId);\n        require(_checkOnERC721Received(address(0), to, tokenId, _data), \"ERC721: transfer to non ERC721Receiver implementer\");\n    }\n\n    /**\n     * @dev Mints `tokenId` and transfers it to `to`.\n     *\n     * WARNING: Usage of this method is discouraged, use {_safeMint} whenever possible\n     *\n     * Requirements:\n     *\n     * - `tokenId` must not exist.\n     * - `to` cannot be the zero address.\n     *\n     * Emits a {Transfer} event.\n     */\n    function _mint(address to, uint256 tokenId) internal virtual {\n        require(to != address(0), \"ERC721: mint to the zero address\");\n        require(!_exists(tokenId), \"ERC721: token already minted\");\n\n        _beforeTokenTransfer(address(0), to, tokenId);\n\n        _holderTokens[to].add(tokenId);\n\n        _tokenOwners.set(tokenId, to);\n\n        emit Transfer(address(0), to, tokenId);\n    }\n\n    /**\n     * @dev Destroys `tokenId`.\n     * The approval is cleared when the token is burned.\n     *\n     * Requirements:\n     *\n     * - `tokenId` must exist.\n     *\n     * Emits a {Transfer} event.\n     */\n    function _burn(uint256 tokenId) internal virtual {\n        address owner = ERC721.ownerOf(tokenId); // internal owner\n\n        _beforeTokenTransfer(owner, address(0), tokenId);\n\n        // Clear approvals\n        _approve(address(0), tokenId);\n\n        // Clear metadata (if any)\n        if (bytes(_tokenURIs[tokenId]).length != 0) {\n            delete _tokenURIs[tokenId];\n        }\n\n        _holderTokens[owner].remove(tokenId);\n\n        _tokenOwners.remove(tokenId);\n\n        emit Transfer(owner, address(0), tokenId);\n    }\n\n    /**\n     * @dev Transfers `tokenId` from `from` to `to`.\n     *  As opposed to {transferFrom}, this imposes no restrictions on msg.sender.\n     *\n     * Requirements:\n     *\n     * - `to` cannot be the zero address.\n     * - `tokenId` token must be owned by `from`.\n     *\n     * Emits a {Transfer} event.\n     */\n    function _transfer(address from, address to, uint256 tokenId) internal virtual {\n        require(ERC721.ownerOf(tokenId) == from, \"ERC721: transfer of token that is not own\"); // internal owner\n        require(to != address(0), \"ERC721: transfer to the zero address\");\n\n        _beforeTokenTransfer(from, to, tokenId);\n\n        // Clear approvals from the previous owner\n        _approve(address(0), tokenId);\n\n        _holderTokens[from].remove(tokenId);\n        _holderTokens[to].add(tokenId);\n\n        _tokenOwners.set(tokenId, to);\n\n        emit Transfer(from, to, tokenId);\n    }\n\n    /**\n     * @dev Sets `_tokenURI` as the tokenURI of `tokenId`.\n     *\n     * Requirements:\n     *\n     * - `tokenId` must exist.\n     */\n    function _setTokenURI(uint256 tokenId, string memory _tokenURI) internal virtual {\n        require(_exists(tokenId), \"ERC721Metadata: URI set of nonexistent token\");\n        _tokenURIs[tokenId] = _tokenURI;\n    }\n\n    /**\n     * @dev Internal function to set the base URI for all token IDs. It is\n     * automatically added as a prefix to the value returned in {tokenURI},\n     * or to the token ID if {tokenURI} is empty.\n     */\n    function _setBaseURI(string memory baseURI_) internal virtual {\n        _baseURI = baseURI_;\n    }\n    \n     \n    \n\n    /**\n     * @dev Internal function to invoke {IERC721Receiver-onERC721Received} on a target address.\n     * The call is not executed if the target address is not a contract.\n     *\n     * @param from address representing the previous owner of the given token ID\n     * @param to target address that will receive the tokens\n     * @param tokenId uint256 ID of the token to be transferred\n     * @param _data bytes optional data to send along with the call\n     * @return bool whether the call correctly returned the expected magic value\n     */\n    function _checkOnERC721Received(address from, address to, uint256 tokenId, bytes memory _data)\n        private returns (bool)\n    {\n        if (!to.isContract()) {\n            return true;\n        }\n        bytes memory returndata = to.functionCall(abi.encodeWithSelector(\n            IERC721Receiver(to).onERC721Received.selector,\n            _msgSender(),\n            from,\n            tokenId,\n            _data\n        ), \"ERC721: transfer to non ERC721Receiver implementer\");\n        bytes4 retval = abi.decode(returndata, (bytes4));\n        return (retval == _ERC721_RECEIVED);\n    }\n\n    function _approve(address to, uint256 tokenId) private {\n        _tokenApprovals[tokenId] = to;\n        emit Approval(ERC721.ownerOf(tokenId), to, tokenId); // internal owner\n    }\n\n    /**\n     * @dev Hook that is called before any token transfer. This includes minting\n     * and burning.\n     *\n     * Calling conditions:\n     *\n     * - When `from` and `to` are both non-zero, ``from``'s `tokenId` will be\n     * transferred to `to`.\n     * - When `from` is zero, `tokenId` will be minted for `to`.\n     * - When `to` is zero, ``from``'s `tokenId` will be burned.\n     * - `from` cannot be the zero address.\n     * - `to` cannot be the zero address.\n     *\n     * To learn more about hooks, head to xref:ROOT:extending-contracts.adoc#using-hooks[Using Hooks].\n     */\n    function _beforeTokenTransfer(address from, address to, uint256 tokenId) internal virtual { }\n}\n\n/**\n * @title ERC721 token receiver interface\n * @dev Interface for any contract that wants to support safeTransfers\n * from ERC721 asset contracts.\n */\n\n\n/**\n * @dev Collection of functions related to the address type\n */\n\n\n\n\n\n\n\ncontract ContractBurger is ERC721, Ownable {\n\n    using SafeMath for uint256;\n    using Strings for uint256;\n\n\n    mapping(uint256 => uint256) private assignOrders;\n\n    uint256 public SALE_START_TIMESTAMP = 1 ; // 1628535570\n\n    uint256 public constant MAX_SUPPLY = 20020;\n    uint256 public texugosRemainingToAssign = MAX_SUPPLY;\n\n\n    uint256 public constant MAX_RESERVE = 10;\n    uint256 public reserved = 0;\n    \n    uint256 public randIndex = 0;\n    uint256 public texugoIndex =0;\n\n    \n    // Base URI\n    address private _donationRecipient;\n    address private _addressDraw1;\n    address private _royalRecipient;\n\n    \n    //uint256[] private drawAmounts = [1 ether, 2 ether, 5 ether]; //Prod represents [2021, 7071, ALL]\n    \n    uint256 public  unitprice = 1 ether/10;\n    uint256[] public  drawAmounts = [1 ether, 2 ether, 3 ether]; //tests \n    uint public constant drawAfterTotalSupply = 3 ether / 10; // define a reasonable value for open market draw\n\n\n    uint256 public dateDraw1;\n    \n    \n    //Better make private after validations\n    uint256 public fundsDon = 0;\n    uint256 public fundsDraw = 0;\n    uint256 public fundsRoyal = 0;\n\n    \n    uint256 public currentDraw = 0;\n    \n    \n    address constant private nul = 0x0000000000000000000000000000000000000000;\n\n\n\n    string public _dataVault;\n    \n    string public constant imageHash = \"notneeded-after-erc721\";\n    \n    \n    \n    \n    \n    function changeDonationRecipient(address  donationRecipient) onlyOwner public {\n       _changeDonationRecipient(donationRecipient);\n    }\n    \n    function _changeDonationRecipient(address  donationRecipient_) internal virtual {\n        _donationRecipient = donationRecipient_;\n    }\n    \n    function getDonationRecipient() public view virtual returns (address ) {\n        return _donationRecipient;\n    }\n    \n    function withdrawDonation() external {\n        require(msg.sender == _donationRecipient);\n        //uint256 don = address(this).balance / 2\n        uint256 f = fundsDon;\n        fundsDon = 0;\n        payable(msg.sender).transfer(f);\n\n        \n    }\n    \n    \n    \n    function changeRoyalRecipient(address  royalRecipient) onlyOwner public {\n       _changeRoyalRecipient(royalRecipient);\n    }\n    \n    function _changeRoyalRecipient(address  royalRecipient_) internal virtual {\n        _royalRecipient = royalRecipient_;\n    }\n    \n    function getRoyalRecipient() public view virtual returns (address ) {\n        return _royalRecipient;\n    }\n    \n    function withdrawRoyal() external {\n        require(msg.sender == _royalRecipient);\n        //uint256 don = address(this).balance / 2\n        uint256 f = fundsRoyal;\n        fundsRoyal = 0;\n        payable(msg.sender).transfer(f);\n\n        \n    }\n    \n    \n    \n    \n    \n    function changeDraw1Recipient(address  draw1Recipient)  internal {\n       _changeDraw1Recipient(draw1Recipient);\n\n    }\n    \n    function _changeDraw1Recipient(address  draw1Recipient_) internal virtual {\n        _addressDraw1 = draw1Recipient_;\n    }\n    \n    function getDraw1Recipient() public view virtual returns (address ) {\n        return _addressDraw1;\n    }\n    \n    function withdrawFundsDraw() external {\n        require(msg.sender == _addressDraw1,\"Address not Eligible\");\n        uint256 prize =  (currentDraw < 3) ? drawAmounts[currentDraw] : drawAfterTotalSupply;\n        require(fundsDraw > prize,\"Not enough Burgers sold yet\");\n        fundsDraw = fundsDraw - prize;\n        currentDraw +=1;\n        _changeDraw1Recipient(nul);\n        payable(msg.sender).transfer(prize);\n        \n    \n    }\n    \n    function doDraw() internal {\n        changeDraw1Recipient(ownerOf(tokenByIndex(_random(totalSupply()) % totalSupply())));\n        \n        /*\n        uint256 winnerTokenId = _random(totalSupply) % totalSupply;\n        uint256 winnerToken = tokenByIndex(winnerTokenId);\n        address winnerAddr = ownerOf(winnerToken);\n        */\n        \n        \n        }\n    \n    \n    function dataVaultOnChain(string  memory dataVault)  public {\n       _dataVaultOnChain(dataVault);\n    }\n    \n    function _dataVaultOnChain(string memory  dataVault_) internal virtual {\n        _dataVault = dataVault_;\n    }\n    \n    \n    \n    \n    \n    \n\n    constructor(string memory name, string memory symbol, string memory baseURI) ERC721(name, symbol) {\n        _setBaseURI(baseURI);\n    }\n\n   /* function reserveNFTs(uint256 amount) onlyOwner public {\n        require(SafeMath.add(totalSupply(), amount) <= MAX_SUPPLY, \"Exceeds maximum supply. Please try to mint less Nfts.\");\n        require(reserved.add(amount) <= MAX_RESERVE, \"Exceeds maximum reserve. Please try to mint less Nfts.\");\n\n        for (uint i = 0; i < amount; i++) {\n            uint mintIndex = totalSupply();\n            _safeMint(msg.sender, mintIndex);\n        }\n        reserved += amount;\n    }*/\n\n    function setSaleTimestamp(uint256 new_SALE_START_TIMESTAMP) onlyOwner public {\n        SALE_START_TIMESTAMP = new_SALE_START_TIMESTAMP;\n    }\n\n    function getNFTPrice(uint256 amount) public view returns (uint256) {\n        require(totalSupply() < MAX_SUPPLY, \"Sale has already ended.\");\n\n        return amount.mul(unitprice);\n    }\n\n    function _random(uint256 capme) internal view returns(uint256) {\n        return uint256(\n            keccak256(\n                abi.encodePacked(block.timestamp + block.difficulty + ((uint256(keccak256(abi.encodePacked(block.coinbase)))) / block.timestamp) + block.gaslimit + ((uint256(keccak256(abi.encodePacked(_msgSender())))) / block.timestamp) + block.number)\n            )\n        ) / capme;\n    }\n\n    function _fillAssignOrder(uint256 orderA, uint256 orderB) internal returns(uint256) {\n        uint256 temp = orderA;\n        if (assignOrders[orderA] > 0) temp = assignOrders[orderA];\n        assignOrders[orderA] = orderB;\n        if (assignOrders[orderB] > 0) assignOrders[orderA] = assignOrders[orderB];\n        assignOrders[orderB] = temp;\n        return assignOrders[orderA];\n    }\n\n    function mintBurger(uint256 amount) public payable {\n        // require(block.timestamp >= SALE_START_TIMESTAMP, \"Sale has not started yet.\");\n        require(totalSupply() < MAX_SUPPLY, \"Sale has already ended.\");\n        require(amount > 0, \"You cannot mint 0 Nfts.\");\n        require(amount <= 20, \"You cannot mint more than 20 Nfts per once\");\n        require(SafeMath.add(totalSupply(), amount) <= MAX_SUPPLY, \"Exceeds maximum supply. Please try to mint less Nfts.\");\n        require(getNFTPrice(amount) == msg.value, \"Amount of Ether sent is not correct.\");\n        \n        fundsDraw += (msg.value * 5 /100);\n        fundsDon += (msg.value * 5 /100);\n        fundsRoyal += (msg.value * 45 /100);\n\n        (bool success,) = owner().call{value: (msg.value * 45 ) /100}(\"\");\n        require(success);\n\n        for (uint i = 0; i < amount; i++) {\n            randIndex = _random(texugosRemainingToAssign) % texugosRemainingToAssign;\n            texugoIndex = _fillAssignOrder(--texugosRemainingToAssign, randIndex);\n            _safeMint(msg.sender, texugoIndex);\n            \n        }\n        \n        if (fundsDraw > drawAmounts[currentDraw]){\n            doDraw();\n        }\n    }\n\n    function buyTexugo(uint256 tokenId) payable public {\n        Offer memory offer = texugosOfferedForSale[tokenId];\n        require(tokenId < MAX_SUPPLY, \"Out of tokenId\");\n        require(offer.isForSale, \"No Sale\");\n        require(offer.onlySellTo == address(0) || offer.onlySellTo == _msgSender(), \"Unable to sell\");\n        require(msg.value >= offer.minValue, \"Insufficient amount\");\n        require(ownerOf(tokenId) == offer.seller, \"Not seller\");\n        address seller = offer.seller;\n        // Transfer the NFT\n        _safeTransfer(seller, _msgSender(), tokenId, \"\");\n        pendingWithdrawals[seller] += msg.value * 95 / 100;\n        // handle\n        (bool success,) = owner().call{value: msg.value * 4 / 100}(\"\");\n        fundsDon += msg.value * 50 / 1000;\n        fundsDraw += msg.value * 50 / 1000;\n        \n        if (fundsDraw > drawAmounts[currentDraw]){\n            doDraw();\n        }\n        \n        require(success);\n        // handle\n        // emit TexugoBought(tokenId, msg.value, seller, _msgSender());\n    }\n\n    function texugoNoLongerForSale(uint256 tokenId) public {\n        _texugoNoLongerForSale(_msgSender(), tokenId);\n    }\n\n    function _texugoNoLongerForSale(address from, uint256 tokenId) internal onlyTradableTexugo(from, tokenId) {\n        texugosOfferedForSale[tokenId] = Offer(false, tokenId, from, 0, address(0));\n        // emit TexugoNoLongerForSale(tokenId);\n    }\n\n    function offerTexugoForSale(uint256 tokenId, uint256 minSalePriceInWei) public onlyTradableTexugo(_msgSender(), tokenId) {\n        texugosOfferedForSale[tokenId] = Offer(true, tokenId, _msgSender(), minSalePriceInWei, address(0));\n        // emit TexugoOffered(tokenId, minSalePriceInWei, address(0));\n    }\n\n    function enterBidForTexugo(uint256 tokenId) public payable {\n        require(tokenId < MAX_SUPPLY, \"Out\");\n        require(ownerOf(tokenId) != _msgSender(), \"Invalid\");\n        require(msg.value > texugoBids[tokenId].value, \"Invalid\");\n        Bid memory existing = texugoBids[tokenId];\n        if (existing.value > 0) {\n            // Refund the failing bid\n            pendingWithdrawals[existing.bidder] += existing.value;\n        }\n        texugoBids[tokenId] = Bid(true, tokenId, _msgSender(), msg.value);\n        // emit TexugoBidEntered(tokenId, msg.value, _msgSender());\n    }\n\n    function acceptBidForTexugo(uint256 tokenId, uint256 minPrice) public onlyTradableTexugo(_msgSender(), tokenId) {\n        require(texugoBids[tokenId].value >= minPrice, \"Invalid\");\n        Bid memory bid = texugoBids[tokenId];\n\n        texugoBids[tokenId] = Bid(false, tokenId, address(0), 0);\n        _safeTransfer(_msgSender(), bid.bidder, tokenId, \"\");\n\n        pendingWithdrawals[_msgSender()] += bid.value * 95 / 100;\n        (bool success,) = owner().call{value: bid.value * 5 / 100}(\"\");\n        require(success);\n        \n        // emit TexugoBought(tokenId, bid.value, _msgSender(), bid.bidder);\n    }\n\n    function withdrawBidForTexugo(uint256 tokenId) public {\n        require(tokenId < MAX_SUPPLY, \"Out\");\n        require(ownerOf(tokenId) != _msgSender(), \"Invalid\");\n        require(texugoBids[tokenId].bidder == _msgSender(), \"Invalid\");\n        texugoBids[tokenId] = Bid(false, tokenId, address(0), 0);\n        // Refund the bid money\n        (bool success,) = _msgSender().call{value: texugoBids[tokenId].value}(\"\");\n        require(success);\n        // emit TexugoBidWithdrawn(tokenId, texugoBids[tokenId].value, _msgSender());\n    }\n    \n    function transferEther(address payable recipient, uint256 amount) onlyOwner public payable {\n      recipient.transfer(amount);\n  }\n\n    \n    function withdraw() public {\n        uint256 amount = pendingWithdrawals[_msgSender()];\n        pendingWithdrawals[_msgSender()] = 0;\n        (bool success,) = _msgSender().call{value: amount}(\"\");\n        require(success);\n    }\n\n    function withdraw(uint256 amount) onlyOwner public {\n        payable(msg.sender).transfer(amount);\n    }\n\n    function changeBaseURI(string memory baseURI) onlyOwner public {\n       _setBaseURI(baseURI);\n    }\n\n    function tokenURI(uint256 tokenId) public view override returns (string memory) {\n        require(_exists(tokenId), \"ERC721Metadata: URI query for nonexistent token\");\n\n        return string(abi.encodePacked(baseURI(), tokenId.toString()));\n    }\n}\n",
  "sourcePath": "/home/kg/burger/burger/src/contracts/contracts/ContractBurger.sol",
  "compiler": {
    "name": "solc",
    "version": "0.8.0+commit.c7dfd78e.Emscripten.clang"
  },
  "schemaVersion": "3.4.3",
  "updatedAt": "2021-10-29T18:06:41.545Z",
  "devdoc": {
    "details": "Collection of functions related to the address type",
    "kind": "dev",
    "methods": {
      "approve(address,uint256)": {
        "details": "See {IERC721-approve}."
      },
      "balanceOf(address)": {
        "details": "See {IERC721-balanceOf}."
      },
      "baseURI()": {
        "details": "Returns the base URI set via {_setBaseURI}. This will be automatically added as a prefix in {tokenURI} to each token's URI, or to the token ID if no specific URI is set for that token ID."
      },
      "getApproved(uint256)": {
        "details": "See {IERC721-getApproved}."
      },
      "isApprovedForAll(address,address)": {
        "details": "See {IERC721-isApprovedForAll}."
      },
      "name()": {
        "details": "See {IERC721Metadata-name}."
      },
      "owner()": {
        "details": "Returns the address of the current owner."
      },
      "ownerOf(uint256)": {
        "details": "See {IERC721-ownerOf}."
      },
      "renounceOwnership()": {
        "details": "Leaves the contract without owner. It will not be possible to call `onlyOwner` functions anymore. Can only be called by the current owner. NOTE: Renouncing ownership will leave the contract without an owner, thereby removing any functionality that is only available to the owner."
      },
      "safeTransferFrom(address,address,uint256)": {
        "details": "See {IERC721-safeTransferFrom}."
      },
      "safeTransferFrom(address,address,uint256,bytes)": {
        "details": "See {IERC721-safeTransferFrom}."
      },
      "setApprovalForAll(address,bool)": {
        "details": "See {IERC721-setApprovalForAll}."
      },
      "supportsInterface(bytes4)": {
        "details": "See {IERC165-supportsInterface}. Time complexity O(1), guaranteed to always use less than 30 000 gas."
      },
      "symbol()": {
        "details": "See {IERC721Metadata-symbol}."
      },
      "tokenByIndex(uint256)": {
        "details": "See {IERC721Enumerable-tokenByIndex}."
      },
      "tokenOfOwnerByIndex(address,uint256)": {
        "details": "See {IERC721Enumerable-tokenOfOwnerByIndex}."
      },
      "tokenURI(uint256)": {
        "details": "See {IERC721Metadata-tokenURI}."
      },
      "totalSupply()": {
        "details": "See {IERC721Enumerable-totalSupply}."
      },
      "transferFrom(address,address,uint256)": {
        "details": "See {IERC721-transferFrom}."
      },
      "transferOwnership(address)": {
        "details": "Transfers ownership of the contract to a new account (`newOwner`). Can only be called by the current owner."
      }
    },
    "version": 1
  },
  "userdoc": {
    "kind": "user",
    "methods": {},
    "version": 1
  }
}