{
  "contractName": "ERC721",
  "abi": [
    {
      "inputs": [
        {
          "internalType": "string",
          "name": "name_",
          "type": "string"
        },
        {
          "internalType": "string",
          "name": "symbol_",
          "type": "string"
        }
      ],
      "stateMutability": "nonpayable",
      "type": "constructor"
    },
    {
      "anonymous": false,
      "inputs": [
        {
          "indexed": true,
          "internalType": "address",
          "name": "owner",
          "type": "address"
        },
        {
          "indexed": true,
          "internalType": "address",
          "name": "approved",
          "type": "address"
        },
        {
          "indexed": true,
          "internalType": "uint256",
          "name": "tokenId",
          "type": "uint256"
        }
      ],
      "name": "Approval",
      "type": "event"
    },
    {
      "anonymous": false,
      "inputs": [
        {
          "indexed": true,
          "internalType": "address",
          "name": "owner",
          "type": "address"
        },
        {
          "indexed": true,
          "internalType": "address",
          "name": "operator",
          "type": "address"
        },
        {
          "indexed": false,
          "internalType": "bool",
          "name": "approved",
          "type": "bool"
        }
      ],
      "name": "ApprovalForAll",
      "type": "event"
    },
    {
      "anonymous": false,
      "inputs": [
        {
          "indexed": true,
          "internalType": "address",
          "name": "from",
          "type": "address"
        },
        {
          "indexed": true,
          "internalType": "address",
          "name": "to",
          "type": "address"
        },
        {
          "indexed": true,
          "internalType": "uint256",
          "name": "tokenId",
          "type": "uint256"
        }
      ],
      "name": "Transfer",
      "type": "event"
    },
    {
      "inputs": [
        {
          "internalType": "address",
          "name": "",
          "type": "address"
        }
      ],
      "name": "pendingWithdrawals",
      "outputs": [
        {
          "internalType": "uint256",
          "name": "",
          "type": "uint256"
        }
      ],
      "stateMutability": "view",
      "type": "function"
    },
    {
      "inputs": [
        {
          "internalType": "bytes4",
          "name": "interfaceId",
          "type": "bytes4"
        }
      ],
      "name": "supportsInterface",
      "outputs": [
        {
          "internalType": "bool",
          "name": "",
          "type": "bool"
        }
      ],
      "stateMutability": "view",
      "type": "function"
    },
    {
      "inputs": [
        {
          "internalType": "uint256",
          "name": "",
          "type": "uint256"
        }
      ],
      "name": "texugoBids",
      "outputs": [
        {
          "internalType": "bool",
          "name": "hasBid",
          "type": "bool"
        },
        {
          "internalType": "uint256",
          "name": "texugoIndex",
          "type": "uint256"
        },
        {
          "internalType": "address",
          "name": "bidder",
          "type": "address"
        },
        {
          "internalType": "uint256",
          "name": "value",
          "type": "uint256"
        }
      ],
      "stateMutability": "view",
      "type": "function"
    },
    {
      "inputs": [
        {
          "internalType": "uint256",
          "name": "",
          "type": "uint256"
        }
      ],
      "name": "texugosOfferedForSale",
      "outputs": [
        {
          "internalType": "bool",
          "name": "isForSale",
          "type": "bool"
        },
        {
          "internalType": "uint256",
          "name": "texugoIndex",
          "type": "uint256"
        },
        {
          "internalType": "address",
          "name": "seller",
          "type": "address"
        },
        {
          "internalType": "uint256",
          "name": "minValue",
          "type": "uint256"
        },
        {
          "internalType": "address",
          "name": "onlySellTo",
          "type": "address"
        }
      ],
      "stateMutability": "view",
      "type": "function"
    },
    {
      "inputs": [
        {
          "internalType": "address",
          "name": "owner",
          "type": "address"
        }
      ],
      "name": "balanceOf",
      "outputs": [
        {
          "internalType": "uint256",
          "name": "",
          "type": "uint256"
        }
      ],
      "stateMutability": "view",
      "type": "function"
    },
    {
      "inputs": [
        {
          "internalType": "uint256",
          "name": "tokenId",
          "type": "uint256"
        }
      ],
      "name": "ownerOf",
      "outputs": [
        {
          "internalType": "address",
          "name": "",
          "type": "address"
        }
      ],
      "stateMutability": "view",
      "type": "function"
    },
    {
      "inputs": [],
      "name": "name",
      "outputs": [
        {
          "internalType": "string",
          "name": "",
          "type": "string"
        }
      ],
      "stateMutability": "view",
      "type": "function"
    },
    {
      "inputs": [],
      "name": "symbol",
      "outputs": [
        {
          "internalType": "string",
          "name": "",
          "type": "string"
        }
      ],
      "stateMutability": "view",
      "type": "function"
    },
    {
      "inputs": [
        {
          "internalType": "uint256",
          "name": "tokenId",
          "type": "uint256"
        }
      ],
      "name": "tokenURI",
      "outputs": [
        {
          "internalType": "string",
          "name": "",
          "type": "string"
        }
      ],
      "stateMutability": "view",
      "type": "function"
    },
    {
      "inputs": [],
      "name": "baseURI",
      "outputs": [
        {
          "internalType": "string",
          "name": "",
          "type": "string"
        }
      ],
      "stateMutability": "view",
      "type": "function"
    },
    {
      "inputs": [
        {
          "internalType": "address",
          "name": "owner",
          "type": "address"
        },
        {
          "internalType": "uint256",
          "name": "index",
          "type": "uint256"
        }
      ],
      "name": "tokenOfOwnerByIndex",
      "outputs": [
        {
          "internalType": "uint256",
          "name": "",
          "type": "uint256"
        }
      ],
      "stateMutability": "view",
      "type": "function"
    },
    {
      "inputs": [],
      "name": "totalSupply",
      "outputs": [
        {
          "internalType": "uint256",
          "name": "",
          "type": "uint256"
        }
      ],
      "stateMutability": "view",
      "type": "function"
    },
    {
      "inputs": [
        {
          "internalType": "uint256",
          "name": "index",
          "type": "uint256"
        }
      ],
      "name": "tokenByIndex",
      "outputs": [
        {
          "internalType": "uint256",
          "name": "",
          "type": "uint256"
        }
      ],
      "stateMutability": "view",
      "type": "function"
    },
    {
      "inputs": [
        {
          "internalType": "address",
          "name": "to",
          "type": "address"
        },
        {
          "internalType": "uint256",
          "name": "tokenId",
          "type": "uint256"
        }
      ],
      "name": "approve",
      "outputs": [],
      "stateMutability": "nonpayable",
      "type": "function"
    },
    {
      "inputs": [
        {
          "internalType": "uint256",
          "name": "tokenId",
          "type": "uint256"
        }
      ],
      "name": "getApproved",
      "outputs": [
        {
          "internalType": "address",
          "name": "",
          "type": "address"
        }
      ],
      "stateMutability": "view",
      "type": "function"
    },
    {
      "inputs": [
        {
          "internalType": "address",
          "name": "operator",
          "type": "address"
        },
        {
          "internalType": "bool",
          "name": "approved",
          "type": "bool"
        }
      ],
      "name": "setApprovalForAll",
      "outputs": [],
      "stateMutability": "nonpayable",
      "type": "function"
    },
    {
      "inputs": [
        {
          "internalType": "address",
          "name": "owner",
          "type": "address"
        },
        {
          "internalType": "address",
          "name": "operator",
          "type": "address"
        }
      ],
      "name": "isApprovedForAll",
      "outputs": [
        {
          "internalType": "bool",
          "name": "",
          "type": "bool"
        }
      ],
      "stateMutability": "view",
      "type": "function"
    },
    {
      "inputs": [
        {
          "internalType": "address",
          "name": "from",
          "type": "address"
        },
        {
          "internalType": "address",
          "name": "to",
          "type": "address"
        },
        {
          "internalType": "uint256",
          "name": "tokenId",
          "type": "uint256"
        }
      ],
      "name": "transferFrom",
      "outputs": [],
      "stateMutability": "nonpayable",
      "type": "function"
    },
    {
      "inputs": [
        {
          "internalType": "address",
          "name": "from",
          "type": "address"
        },
        {
          "internalType": "address",
          "name": "to",
          "type": "address"
        },
        {
          "internalType": "uint256",
          "name": "tokenId",
          "type": "uint256"
        }
      ],
      "name": "safeTransferFrom",
      "outputs": [],
      "stateMutability": "nonpayable",
      "type": "function"
    },
    {
      "inputs": [
        {
          "internalType": "address",
          "name": "from",
          "type": "address"
        },
        {
          "internalType": "address",
          "name": "to",
          "type": "address"
        },
        {
          "internalType": "uint256",
          "name": "tokenId",
          "type": "uint256"
        },
        {
          "internalType": "bytes",
          "name": "_data",
          "type": "bytes"
        }
      ],
      "name": "safeTransferFrom",
      "outputs": [],
      "stateMutability": "nonpayable",
      "type": "function"
    }
  ],
  "bytecode": "0x60806040523480156200001157600080fd5b5060405162003272380380620032728339818101604052810190620000379190620002cb565b6200004f6301ffc9a760e01b620000d160201b60201c565b81600b908051906020019062000067929190620001a9565b5080600c908051906020019062000080929190620001a9565b50620000996380ac58cd60e01b620000d160201b60201c565b620000b1635b5e139f60e01b620000d160201b60201c565b620000c963780e9d6360e01b620000d160201b60201c565b5050620004e4565b63ffffffff60e01b817bffffffffffffffffffffffffffffffffffffffffffffffffffffffff191614156200013d576040517f08c379a0000000000000000000000000000000000000000000000000000000008152600401620001349062000380565b60405180910390fd5b6001600080837bffffffffffffffffffffffffffffffffffffffffffffffffffffffff19167bffffffffffffffffffffffffffffffffffffffffffffffffffffffff1916815260200190815260200160002060006101000a81548160ff02191690831515021790555050565b828054620001b79062000450565b90600052602060002090601f016020900481019282620001db576000855562000227565b82601f10620001f657805160ff191683800117855562000227565b8280016001018555821562000227579182015b828111156200022657825182559160200191906001019062000209565b5b5090506200023691906200023a565b5090565b5b80821115620002555760008160009055506001016200023b565b5090565b6000620002706200026a84620003d6565b620003a2565b9050828152602081018484840111156200028957600080fd5b620002968482856200041a565b509392505050565b600082601f830112620002b057600080fd5b8151620002c284826020860162000259565b91505092915050565b60008060408385031215620002df57600080fd5b600083015167ffffffffffffffff811115620002fa57600080fd5b62000308858286016200029e565b925050602083015167ffffffffffffffff8111156200032657600080fd5b62000334858286016200029e565b9150509250929050565b60006200034d601c8362000409565b91507f4552433136353a20696e76616c696420696e74657266616365206964000000006000830152602082019050919050565b600060208201905081810360008301526200039b816200033e565b9050919050565b6000604051905081810181811067ffffffffffffffff82111715620003cc57620003cb620004b5565b5b8060405250919050565b600067ffffffffffffffff821115620003f457620003f3620004b5565b5b601f19601f8301169050602081019050919050565b600082825260208201905092915050565b60005b838110156200043a5780820151818401526020810190506200041d565b838111156200044a576000848401525b50505050565b600060028204905060018216806200046957607f821691505b6020821081141562000480576200047f62000486565b5b50919050565b7f4e487b7100000000000000000000000000000000000000000000000000000000600052602260045260246000fd5b7f4e487b7100000000000000000000000000000000000000000000000000000000600052604160045260246000fd5b612d7e80620004f46000396000f3fe608060405234801561001057600080fd5b506004361061012c5760003560e01c80636352211e116100ad578063b88d4fde11610071578063b88d4fde1461036d578063c87b56dd14610389578063da25448d146103b9578063e985e9c5146103ec578063f3f437031461041c5761012c565b80636352211e146102b55780636c0360eb146102e557806370a082311461030357806395d89b4114610333578063a22cb465146103515761012c565b806323b872dd116100f457806323b872dd146101e95780632f745c591461020557806342842e0e14610235578063489dd712146102515780634f6ccce7146102855761012c565b806301ffc9a71461013157806306fdde0314610161578063081812fc1461017f578063095ea7b3146101af57806318160ddd146101cb575b600080fd5b61014b60048036038101906101469190611f68565b61044c565b6040516101589190612668565b60405180910390f35b6101696104b3565b604051610176919061271b565b60405180910390f35b61019960048036038101906101949190611fba565b610545565b6040516101a69190612601565b60405180910390f35b6101c960048036038101906101c49190611f2c565b6105ca565b005b6101d36106e2565b6040516101e091906128dd565b60405180910390f35b61020360048036038101906101fe9190611e26565b6106f3565b005b61021f600480360381019061021a9190611f2c565b610753565b60405161022c91906128dd565b60405180910390f35b61024f600480360381019061024a9190611e26565b6107ae565b005b61026b60048036038101906102669190611fba565b6107ce565b60405161027c9594939291906126c8565b60405180910390f35b61029f600480360381019061029a9190611fba565b610851565b6040516102ac91906128dd565b60405180910390f35b6102cf60048036038101906102ca9190611fba565b610874565b6040516102dc9190612601565b60405180910390f35b6102ed6108ab565b6040516102fa919061271b565b60405180910390f35b61031d60048036038101906103189190611dc1565b61093d565b60405161032a91906128dd565b60405180910390f35b61033b6109fc565b604051610348919061271b565b60405180910390f35b61036b60048036038101906103669190611ef0565b610a8e565b005b61038760048036038101906103829190611e75565b610c0f565b005b6103a3600480360381019061039e9190611fba565b610c71565b6040516103b0919061271b565b60405180910390f35b6103d360048036038101906103ce9190611fba565b610de4565b6040516103e39493929190612683565b60405180910390f35b61040660048036038101906104019190611dea565b610e41565b6040516104139190612668565b60405180910390f35b61043660048036038101906104319190611dc1565b610ed5565b60405161044391906128dd565b60405180910390f35b6000806000837bffffffffffffffffffffffffffffffffffffffffffffffffffffffff19167bffffffffffffffffffffffffffffffffffffffffffffffffffffffff1916815260200190815260200160002060009054906101000a900460ff169050919050565b6060600b80546104c290612b18565b80601f01602080910402602001604051908101604052809291908181526020018280546104ee90612b18565b801561053b5780601f106105105761010080835404028352916020019161053b565b820191906000526020600020905b81548152906001019060200180831161051e57829003601f168201915b5050505050905090565b600061055082610eed565b61058f576040517f08c379a00000000000000000000000000000000000000000000000000000000081526004016105869061281d565b60405180910390fd5b6009600083815260200190815260200160002060009054906101000a900473ffffffffffffffffffffffffffffffffffffffff169050919050565b60006105d582610874565b90508073ffffffffffffffffffffffffffffffffffffffff168373ffffffffffffffffffffffffffffffffffffffff161415610646576040517f08c379a000000000000000000000000000000000000000000000000000000000815260040161063d9061287d565b60405180910390fd5b8073ffffffffffffffffffffffffffffffffffffffff16610665610f0a565b73ffffffffffffffffffffffffffffffffffffffff16148061069457506106938161068e610f0a565b610e41565b5b6106d3576040517f08c379a00000000000000000000000000000000000000000000000000000000081526004016106ca906127dd565b60405180910390fd5b6106dd8383610f12565b505050565b60006106ee6006610fcb565b905090565b6107046106fe610f0a565b82610fe0565b610743576040517f08c379a000000000000000000000000000000000000000000000000000000000815260040161073a9061289d565b60405180910390fd5b61074e8383836110be565b505050565b60006107a682600560008673ffffffffffffffffffffffffffffffffffffffff1673ffffffffffffffffffffffffffffffffffffffff1681526020019081526020016000206112d590919063ffffffff16565b905092915050565b6107c983838360405180602001604052806000815250610c0f565b505050565b60026020528060005260406000206000915090508060000160009054906101000a900460ff16908060010154908060020160009054906101000a900473ffffffffffffffffffffffffffffffffffffffff16908060030154908060040160009054906101000a900473ffffffffffffffffffffffffffffffffffffffff16905085565b6000806108688360066112ef90919063ffffffff16565b50905080915050919050565b60006108a482604051806060016040528060298152602001612d2060299139600661131b9092919063ffffffff16565b9050919050565b6060600e80546108ba90612b18565b80601f01602080910402602001604051908101604052809291908181526020018280546108e690612b18565b80156109335780601f1061090857610100808354040283529160200191610933565b820191906000526020600020905b81548152906001019060200180831161091657829003601f168201915b5050505050905090565b60008073ffffffffffffffffffffffffffffffffffffffff168273ffffffffffffffffffffffffffffffffffffffff1614156109ae576040517f08c379a00000000000000000000000000000000000000000000000000000000081526004016109a5906127fd565b60405180910390fd5b6109f5600560008473ffffffffffffffffffffffffffffffffffffffff1673ffffffffffffffffffffffffffffffffffffffff16815260200190815260200160002061133a565b9050919050565b6060600c8054610a0b90612b18565b80601f0160208091040260200160405190810160405280929190818152602001828054610a3790612b18565b8015610a845780601f10610a5957610100808354040283529160200191610a84565b820191906000526020600020905b815481529060010190602001808311610a6757829003601f168201915b5050505050905090565b610a96610f0a565b73ffffffffffffffffffffffffffffffffffffffff168273ffffffffffffffffffffffffffffffffffffffff161415610b04576040517f08c379a0000000000000000000000000000000000000000000000000000000008152600401610afb9061277d565b60405180910390fd5b80600a6000610b11610f0a565b73ffffffffffffffffffffffffffffffffffffffff1673ffffffffffffffffffffffffffffffffffffffff16815260200190815260200160002060008473ffffffffffffffffffffffffffffffffffffffff1673ffffffffffffffffffffffffffffffffffffffff16815260200190815260200160002060006101000a81548160ff0219169083151502179055508173ffffffffffffffffffffffffffffffffffffffff16610bbe610f0a565b73ffffffffffffffffffffffffffffffffffffffff167f17307eab39ab6107e8899845ad3d59bd9653f200f220920489ca2b5937696c3183604051610c039190612668565b60405180910390a35050565b610c20610c1a610f0a565b83610fe0565b610c5f576040517f08c379a0000000000000000000000000000000000000000000000000000000008152600401610c569061289d565b60405180910390fd5b610c6b8484848461134f565b50505050565b6060610c7c82610eed565b610cbb576040517f08c379a0000000000000000000000000000000000000000000000000000000008152600401610cb29061285d565b60405180910390fd5b6000600d60008481526020019081526020016000208054610cdb90612b18565b80601f0160208091040260200160405190810160405280929190818152602001828054610d0790612b18565b8015610d545780601f10610d2957610100808354040283529160200191610d54565b820191906000526020600020905b815481529060010190602001808311610d3757829003601f168201915b505050505090506000610d656108ab565b9050600081511415610d7b578192505050610ddf565b600082511115610db0578082604051602001610d989291906125dd565b60405160208183030381529060405292505050610ddf565b80610dba856113ab565b604051602001610dcb9291906125dd565b604051602081830303815290604052925050505b919050565b60036020528060005260406000206000915090508060000160009054906101000a900460ff16908060010154908060020160009054906101000a900473ffffffffffffffffffffffffffffffffffffffff16908060030154905084565b6000600a60008473ffffffffffffffffffffffffffffffffffffffff1673ffffffffffffffffffffffffffffffffffffffff16815260200190815260200160002060008373ffffffffffffffffffffffffffffffffffffffff1673ffffffffffffffffffffffffffffffffffffffff16815260200190815260200160002060009054906101000a900460ff16905092915050565b60046020528060005260406000206000915090505481565b6000610f0382600661155890919063ffffffff16565b9050919050565b600033905090565b816009600083815260200190815260200160002060006101000a81548173ffffffffffffffffffffffffffffffffffffffff021916908373ffffffffffffffffffffffffffffffffffffffff160217905550808273ffffffffffffffffffffffffffffffffffffffff16610f8583610874565b73ffffffffffffffffffffffffffffffffffffffff167f8c5be1e5ebec7d5bd14f71427d1e84f3dd0314c0f7b2291e5b200ac8c7c3b92560405160405180910390a45050565b6000610fd982600001611572565b9050919050565b6000610feb82610eed565b61102a576040517f08c379a0000000000000000000000000000000000000000000000000000000008152600401611021906127bd565b60405180910390fd5b600061103583610874565b90508073ffffffffffffffffffffffffffffffffffffffff168473ffffffffffffffffffffffffffffffffffffffff1614806110a457508373ffffffffffffffffffffffffffffffffffffffff1661108c84610545565b73ffffffffffffffffffffffffffffffffffffffff16145b806110b557506110b48185610e41565b5b91505092915050565b8273ffffffffffffffffffffffffffffffffffffffff166110de82610874565b73ffffffffffffffffffffffffffffffffffffffff1614611134576040517f08c379a000000000000000000000000000000000000000000000000000000000815260040161112b9061283d565b60405180910390fd5b600073ffffffffffffffffffffffffffffffffffffffff168273ffffffffffffffffffffffffffffffffffffffff1614156111a4576040517f08c379a000000000000000000000000000000000000000000000000000000000815260040161119b9061275d565b60405180910390fd5b6111af838383611587565b6111ba600082610f12565b61120b81600560008673ffffffffffffffffffffffffffffffffffffffff1673ffffffffffffffffffffffffffffffffffffffff16815260200190815260200160002061158c90919063ffffffff16565b5061125d81600560008573ffffffffffffffffffffffffffffffffffffffff1673ffffffffffffffffffffffffffffffffffffffff1681526020019081526020016000206115a690919063ffffffff16565b50611274818360066115c09092919063ffffffff16565b50808273ffffffffffffffffffffffffffffffffffffffff168473ffffffffffffffffffffffffffffffffffffffff167fddf252ad1be2c89b69c2b068fc378daa952ba7f163c4a11628f55a4df523b3ef60405160405180910390a4505050565b60006112e483600001836115f5565b60001c905092915050565b6000806000806113028660000186611646565b915091508160001c8160001c9350935050509250929050565b600061132e846000018460001b84611686565b60001c90509392505050565b600061134882600001611707565b9050919050565b61135a8484846110be565b61136684848484611718565b6113a5576040517f08c379a000000000000000000000000000000000000000000000000000000000815260040161139c9061273d565b60405180910390fd5b50505050565b606060008214156113f3576040518060400160405280600181526020017f30000000000000000000000000000000000000000000000000000000000000008152509050611553565b600082905060005b6000821461142557808061140e90612b4a565b915050600a8261141e91906129fd565b91506113fb565b60008167ffffffffffffffff811115611467577f4e487b7100000000000000000000000000000000000000000000000000000000600052604160045260246000fd5b6040519080825280601f01601f1916602001820160405280156114995781602001600182028036833780820191505090505b5090505b6000851461154c576001826114b29190612a2e565b9150600a856114c19190612b93565b60306114cd91906129a7565b60f81b818381518110611509577f4e487b7100000000000000000000000000000000000000000000000000000000600052603260045260246000fd5b60200101907effffffffffffffffffffffffffffffffffffffffffffffffffffffffffffff1916908160001a905350600a8561154591906129fd565b945061149d565b8093505050505b919050565b600061156a836000018360001b61187c565b905092915050565b60006115808260000161189c565b9050919050565b505050565b600061159e836000018360001b6118b1565b905092915050565b60006115b8836000018360001b611a37565b905092915050565b60006115ec846000018460001b8473ffffffffffffffffffffffffffffffffffffffff1660001b611aa7565b90509392505050565b6000826000018281548110611633577f4e487b7100000000000000000000000000000000000000000000000000000000600052603260045260246000fd5b9060005260206000200154905092915050565b60008060006116618486600001611ae290919063ffffffff16565b9050808560020160008381526020019081526020016000205492509250509250929050565b6000808460020160008581526020019081526020016000205490506000801b811415806116b957506116b8858561187c565b5b83906116fb576040517f08c379a00000000000000000000000000000000000000000000000000000000081526004016116f2919061271b565b60405180910390fd5b50809150509392505050565b600081600001805490509050919050565b60006117398473ffffffffffffffffffffffffffffffffffffffff16611af9565b6117465760019050611874565b600061180d63150b7a0260e01b61175b610f0a565b888787604051602401611771949392919061261c565b604051602081830303815290604052907bffffffffffffffffffffffffffffffffffffffffffffffffffffffff19166020820180517bffffffffffffffffffffffffffffffffffffffffffffffffffffffff8381831617835250505050604051806060016040528060328152602001612cee603291398773ffffffffffffffffffffffffffffffffffffffff16611b0c9092919063ffffffff16565b90506000818060200190518101906118259190611f91565b905063150b7a0260e01b7bffffffffffffffffffffffffffffffffffffffffffffffffffffffff1916817bffffffffffffffffffffffffffffffffffffffffffffffffffffffff191614925050505b949350505050565b60006118948284600001611b2490919063ffffffff16565b905092915050565b60006118aa82600001611707565b9050919050565b60008083600101600084815260200190815260200160002054905060008114611a2b5760006001826118e39190612a2e565b90506000600186600001805490506118fb9190612a2e565b90508181146119b6576000866000018281548110611942577f4e487b7100000000000000000000000000000000000000000000000000000000600052603260045260246000fd5b906000526020600020015490508087600001848154811061198c577f4e487b7100000000000000000000000000000000000000000000000000000000600052603260045260246000fd5b90600052602060002001819055508387600101600083815260200190815260200160002081905550505b856000018054806119f0577f4e487b7100000000000000000000000000000000000000000000000000000000600052603160045260246000fd5b600190038181906000526020600020016000905590558560010160008681526020019081526020016000206000905560019350505050611a31565b60009150505b92915050565b6000611a438383611b3b565b611a9c578260000182908060018154018082558091505060019003906000526020600020016000909190919091505582600001805490508360010160008481526020019081526020016000208190555060019050611aa1565b600090505b92915050565b60008184600201600085815260200190815260200160002081905550611ad98385600001611b5e90919063ffffffff16565b90509392505050565b6000611af183600001836115f5565b905092915050565b600080823b905060008111915050919050565b6060611b1b8484600085611b75565b90509392505050565b6000611b338360000183611b3b565b905092915050565b600080836001016000848152602001908152602001600020541415905092915050565b6000611b6d8360000183611a37565b905092915050565b606082471015611bba576040517f08c379a0000000000000000000000000000000000000000000000000000000008152600401611bb19061279d565b60405180910390fd5b611bc385611af9565b611c02576040517f08c379a0000000000000000000000000000000000000000000000000000000008152600401611bf9906128bd565b60405180910390fd5b6000808673ffffffffffffffffffffffffffffffffffffffff168587604051611c2b91906125c6565b60006040518083038185875af1925050503d8060008114611c68576040519150601f19603f3d011682016040523d82523d6000602084013e611c6d565b606091505b5091509150611c7d828286611c89565b92505050949350505050565b60608315611c9957829050611ce9565b600083511115611cac5782518084602001fd5b816040517f08c379a0000000000000000000000000000000000000000000000000000000008152600401611ce0919061271b565b60405180910390fd5b9392505050565b6000611d03611cfe84612929565b6128f8565b905082815260208101848484011115611d1b57600080fd5b611d26848285612ad6565b509392505050565b600081359050611d3d81612c91565b92915050565b600081359050611d5281612ca8565b92915050565b600081359050611d6781612cbf565b92915050565b600081519050611d7c81612cbf565b92915050565b600082601f830112611d9357600080fd5b8135611da3848260208601611cf0565b91505092915050565b600081359050611dbb81612cd6565b92915050565b600060208284031215611dd357600080fd5b6000611de184828501611d2e565b91505092915050565b60008060408385031215611dfd57600080fd5b6000611e0b85828601611d2e565b9250506020611e1c85828601611d2e565b9150509250929050565b600080600060608486031215611e3b57600080fd5b6000611e4986828701611d2e565b9350506020611e5a86828701611d2e565b9250506040611e6b86828701611dac565b9150509250925092565b60008060008060808587031215611e8b57600080fd5b6000611e9987828801611d2e565b9450506020611eaa87828801611d2e565b9350506040611ebb87828801611dac565b925050606085013567ffffffffffffffff811115611ed857600080fd5b611ee487828801611d82565b91505092959194509250565b60008060408385031215611f0357600080fd5b6000611f1185828601611d2e565b9250506020611f2285828601611d43565b9150509250929050565b60008060408385031215611f3f57600080fd5b6000611f4d85828601611d2e565b9250506020611f5e85828601611dac565b9150509250929050565b600060208284031215611f7a57600080fd5b6000611f8884828501611d58565b91505092915050565b600060208284031215611fa357600080fd5b6000611fb184828501611d6d565b91505092915050565b600060208284031215611fcc57600080fd5b6000611fda84828501611dac565b91505092915050565b611fec81612a62565b82525050565b611ffb81612a74565b82525050565b600061200c82612959565b612016818561296f565b9350612026818560208601612ae5565b61202f81612c80565b840191505092915050565b600061204582612959565b61204f8185612980565b935061205f818560208601612ae5565b80840191505092915050565b600061207682612964565b612080818561298b565b9350612090818560208601612ae5565b61209981612c80565b840191505092915050565b60006120af82612964565b6120b9818561299c565b93506120c9818560208601612ae5565b80840191505092915050565b60006120e260328361298b565b91507f4552433732313a207472616e7366657220746f206e6f6e20455243373231526560008301527f63656976657220696d706c656d656e74657200000000000000000000000000006020830152604082019050919050565b600061214860248361298b565b91507f4552433732313a207472616e7366657220746f20746865207a65726f2061646460008301527f72657373000000000000000000000000000000000000000000000000000000006020830152604082019050919050565b60006121ae60198361298b565b91507f4552433732313a20617070726f766520746f2063616c6c6572000000000000006000830152602082019050919050565b60006121ee60268361298b565b91507f416464726573733a20696e73756666696369656e742062616c616e636520666f60008301527f722063616c6c00000000000000000000000000000000000000000000000000006020830152604082019050919050565b6000612254602c8361298b565b91507f4552433732313a206f70657261746f7220717565727920666f72206e6f6e657860008301527f697374656e7420746f6b656e00000000000000000000000000000000000000006020830152604082019050919050565b60006122ba60388361298b565b91507f4552433732313a20617070726f76652063616c6c6572206973206e6f74206f7760008301527f6e6572206e6f7220617070726f76656420666f7220616c6c00000000000000006020830152604082019050919050565b6000612320602a8361298b565b91507f4552433732313a2062616c616e636520717565727920666f7220746865207a6560008301527f726f2061646472657373000000000000000000000000000000000000000000006020830152604082019050919050565b6000612386602c8361298b565b91507f4552433732313a20617070726f76656420717565727920666f72206e6f6e657860008301527f697374656e7420746f6b656e00000000000000000000000000000000000000006020830152604082019050919050565b60006123ec60298361298b565b91507f4552433732313a207472616e73666572206f6620746f6b656e2074686174206960008301527f73206e6f74206f776e00000000000000000000000000000000000000000000006020830152604082019050919050565b6000612452602f8361298b565b91507f4552433732314d657461646174613a2055524920717565727920666f72206e6f60008301527f6e6578697374656e7420746f6b656e00000000000000000000000000000000006020830152604082019050919050565b60006124b860218361298b565b91507f4552433732313a20617070726f76616c20746f2063757272656e74206f776e6560008301527f72000000000000000000000000000000000000000000000000000000000000006020830152604082019050919050565b600061251e60318361298b565b91507f4552433732313a207472616e736665722063616c6c6572206973206e6f74206f60008301527f776e6572206e6f7220617070726f7665640000000000000000000000000000006020830152604082019050919050565b6000612584601d8361298b565b91507f416464726573733a2063616c6c20746f206e6f6e2d636f6e74726163740000006000830152602082019050919050565b6125c081612acc565b82525050565b60006125d2828461203a565b915081905092915050565b60006125e982856120a4565b91506125f582846120a4565b91508190509392505050565b60006020820190506126166000830184611fe3565b92915050565b60006080820190506126316000830187611fe3565b61263e6020830186611fe3565b61264b60408301856125b7565b818103606083015261265d8184612001565b905095945050505050565b600060208201905061267d6000830184611ff2565b92915050565b60006080820190506126986000830187611ff2565b6126a560208301866125b7565b6126b26040830185611fe3565b6126bf60608301846125b7565b95945050505050565b600060a0820190506126dd6000830188611ff2565b6126ea60208301876125b7565b6126f76040830186611fe3565b61270460608301856125b7565b6127116080830184611fe3565b9695505050505050565b60006020820190508181036000830152612735818461206b565b905092915050565b60006020820190508181036000830152612756816120d5565b9050919050565b600060208201905081810360008301526127768161213b565b9050919050565b60006020820190508181036000830152612796816121a1565b9050919050565b600060208201905081810360008301526127b6816121e1565b9050919050565b600060208201905081810360008301526127d681612247565b9050919050565b600060208201905081810360008301526127f6816122ad565b9050919050565b6000602082019050818103600083015261281681612313565b9050919050565b6000602082019050818103600083015261283681612379565b9050919050565b60006020820190508181036000830152612856816123df565b9050919050565b6000602082019050818103600083015261287681612445565b9050919050565b60006020820190508181036000830152612896816124ab565b9050919050565b600060208201905081810360008301526128b681612511565b9050919050565b600060208201905081810360008301526128d681612577565b9050919050565b60006020820190506128f260008301846125b7565b92915050565b6000604051905081810181811067ffffffffffffffff8211171561291f5761291e612c51565b5b8060405250919050565b600067ffffffffffffffff82111561294457612943612c51565b5b601f19601f8301169050602081019050919050565b600081519050919050565b600081519050919050565b600082825260208201905092915050565b600081905092915050565b600082825260208201905092915050565b600081905092915050565b60006129b282612acc565b91506129bd83612acc565b9250827fffffffffffffffffffffffffffffffffffffffffffffffffffffffffffffffff038211156129f2576129f1612bc4565b5b828201905092915050565b6000612a0882612acc565b9150612a1383612acc565b925082612a2357612a22612bf3565b5b828204905092915050565b6000612a3982612acc565b9150612a4483612acc565b925082821015612a5757612a56612bc4565b5b828203905092915050565b6000612a6d82612aac565b9050919050565b60008115159050919050565b60007fffffffff0000000000000000000000000000000000000000000000000000000082169050919050565b600073ffffffffffffffffffffffffffffffffffffffff82169050919050565b6000819050919050565b82818337600083830152505050565b60005b83811015612b03578082015181840152602081019050612ae8565b83811115612b12576000848401525b50505050565b60006002820490506001821680612b3057607f821691505b60208210811415612b4457612b43612c22565b5b50919050565b6000612b5582612acc565b91507fffffffffffffffffffffffffffffffffffffffffffffffffffffffffffffffff821415612b8857612b87612bc4565b5b600182019050919050565b6000612b9e82612acc565b9150612ba983612acc565b925082612bb957612bb8612bf3565b5b828206905092915050565b7f4e487b7100000000000000000000000000000000000000000000000000000000600052601160045260246000fd5b7f4e487b7100000000000000000000000000000000000000000000000000000000600052601260045260246000fd5b7f4e487b7100000000000000000000000000000000000000000000000000000000600052602260045260246000fd5b7f4e487b7100000000000000000000000000000000000000000000000000000000600052604160045260246000fd5b6000601f19601f8301169050919050565b612c9a81612a62565b8114612ca557600080fd5b50565b612cb181612a74565b8114612cbc57600080fd5b50565b612cc881612a80565b8114612cd357600080fd5b50565b612cdf81612acc565b8114612cea57600080fd5b5056fe4552433732313a207472616e7366657220746f206e6f6e20455243373231526563656976657220696d706c656d656e7465724552433732313a206f776e657220717565727920666f72206e6f6e6578697374656e7420746f6b656ea2646970667358221220c7535180de17b56cfd744c718c04399500d432c44896d395f5bb945ee39b8ee964736f6c63430008000033",
  "immutableReferences": {},
  "source": "\n\n// SPDX-License-Identifier: MIT\n\npragma solidity ^0.8.0;\n\n\n\nimport \"openzeppelin-solidity/contracts/access/Ownable.sol\";\n\nimport \"openzeppelin-solidity/contracts/utils/Context.sol\";\n\nimport \"openzeppelin-solidity/contracts/utils/math/SafeMath.sol\";\n\nimport \"openzeppelin-solidity/contracts/interfaces/IERC165.sol\";\n\nimport \"openzeppelin-solidity/contracts/interfaces/IERC721.sol\";\n\nimport \"openzeppelin-solidity/contracts/interfaces/IERC721Enumerable.sol\";\n\nimport \"openzeppelin-solidity/contracts/interfaces/IERC721Metadata.sol\";\n\nimport \"openzeppelin-solidity/contracts/interfaces/IERC721Receiver.sol\";\n\nimport \"openzeppelin-solidity/contracts/utils/Address.sol\";\n\nimport \"openzeppelin-solidity/contracts/utils/structs/EnumerableMap.sol\";\n\nimport \"openzeppelin-solidity/contracts/utils/Strings.sol\";\n\n\n\nabstract contract ERC165 is IERC165 {\n    /*\n     * bytes4(keccak256('supportsInterface(bytes4)')) == 0x01ffc9a7\n     */\n    bytes4 private constant _INTERFACE_ID_ERC165 = 0x01ffc9a7;\n\n    /**\n     * @dev Mapping of interface ids to whether or not it's supported.\n     */\n    mapping(bytes4 => bool) private _supportedInterfaces;\n\n    constructor ()  {\n        // Derived contracts need only register support for their own interfaces,\n        // we register support for ERC165 itself here\n        _registerInterface(_INTERFACE_ID_ERC165);\n    }\n\n    /**\n     * @dev See {IERC165-supportsInterface}.\n     *\n     * Time complexity O(1), guaranteed to always use less than 30 000 gas.\n     */\n    function supportsInterface(bytes4 interfaceId) public view virtual override returns (bool) {\n        return _supportedInterfaces[interfaceId];\n    }\n\n    /**\n     * @dev Registers the contract as an implementer of the interface defined by\n     * `interfaceId`. Support of the actual ERC165 interface is automatic and\n     * registering its interface id is not required.\n     *\n     * See {IERC165-supportsInterface}.\n     *\n     * Requirements:\n     *\n     * - `interfaceId` cannot be the ERC165 invalid interface (`0xffffffff`).\n     */\n    function _registerInterface(bytes4 interfaceId) internal virtual {\n        require(interfaceId != 0xffffffff, \"ERC165: invalid interface id\");\n        _supportedInterfaces[interfaceId] = true;\n    }\n}\n\n\n\n/**\n * @title ERC721 Non-Fungible Token Standard basic implementation\n * @dev see https://eips.ethereum.org/EIPS/eip-721\n */\ncontract ERC721 is Context, ERC165, IERC721, IERC721Metadata, IERC721Enumerable {\n    using SafeMath for uint256;\n    using Address for address;\n    using EnumerableSet for EnumerableSet.UintSet;\n    using EnumerableMap for EnumerableMap.UintToAddressMap;\n    using Strings for uint256;\n\n    modifier onlyTradableTexugo (address from, uint256 tokenId) {\n        require(tokenId < 20020, \"Out of tokenId\");\n        require(ownerOf(tokenId) == from, \"ERC721: transfer of token that is not own\");\n        _;\n    }\n\n    struct Offer {\n        bool isForSale;\n        uint256 texugoIndex;\n        address seller;\n        uint256 minValue;       \n        address onlySellTo;\n    }\n    struct Bid {\n        bool hasBid;\n        uint256 texugoIndex;\n        address bidder;\n        uint256 value;\n    }\n    mapping(uint256 => uint256) private assignOrders;\n    mapping (uint256 => Offer) public texugosOfferedForSale;\n    mapping (uint256 => Bid) public texugoBids;\n    mapping (address => uint256) public pendingWithdrawals;\n\n    // Equals to `bytes4(keccak256(\"onERC721Received(address,address,uint256,bytes)\"))`\n    // which can be also obtained as `IERC721Receiver(0).onERC721Received.selector`\n    bytes4 private constant _ERC721_RECEIVED = 0x150b7a02;\n\n    // Mapping from holder address to their (enumerable) set of owned tokens\n    mapping (address => EnumerableSet.UintSet) private _holderTokens;\n\n    // Enumerable mapping from token ids to their owners\n    EnumerableMap.UintToAddressMap private _tokenOwners;\n\n    // Mapping from token ID to approved address\n    mapping (uint256 => address) private _tokenApprovals;\n\n    // Mapping from owner to operator approvals\n    mapping (address => mapping (address => bool)) private _operatorApprovals;\n\n    // Token name\n    string private _name;\n\n    // Token symbol\n    string private _symbol;\n\n    // Optional mapping for token URIs\n    mapping (uint256 => string) private _tokenURIs;\n\n    // Base URI\n    string private _baseURI;\n\n    /*\n     *     bytes4(keccak256('balanceOf(address)')) == 0x70a08231\n     *     bytes4(keccak256('ownerOf(uint256)')) == 0x6352211e\n     *     bytes4(keccak256('approve(address,uint256)')) == 0x095ea7b3\n     *     bytes4(keccak256('getApproved(uint256)')) == 0x081812fc\n     *     bytes4(keccak256('setApprovalForAll(address,bool)')) == 0xa22cb465\n     *     bytes4(keccak256('isApprovedForAll(address,address)')) == 0xe985e9c5\n     *     bytes4(keccak256('transferFrom(address,address,uint256)')) == 0x23b872dd\n     *     bytes4(keccak256('safeTransferFrom(address,address,uint256)')) == 0x42842e0e\n     *     bytes4(keccak256('safeTransferFrom(address,address,uint256,bytes)')) == 0xb88d4fde\n     *\n     *     => 0x70a08231 ^ 0x6352211e ^ 0x095ea7b3 ^ 0x081812fc ^\n     *        0xa22cb465 ^ 0xe985e9c5 ^ 0x23b872dd ^ 0x42842e0e ^ 0xb88d4fde == 0x80ac58cd\n     */\n    bytes4 private constant _INTERFACE_ID_ERC721 = 0x80ac58cd;\n\n    /*\n     *     bytes4(keccak256('name()')) == 0x06fdde03\n     *     bytes4(keccak256('symbol()')) == 0x95d89b41\n     *     bytes4(keccak256('tokenURI(uint256)')) == 0xc87b56dd\n     *\n     *     => 0x06fdde03 ^ 0x95d89b41 ^ 0xc87b56dd == 0x5b5e139f\n     */\n    bytes4 private constant _INTERFACE_ID_ERC721_METADATA = 0x5b5e139f;\n\n    /*\n     *     bytes4(keccak256('totalSupply()')) == 0x18160ddd\n     *     bytes4(keccak256('tokenOfOwnerByIndex(address,uint256)')) == 0x2f745c59\n     *     bytes4(keccak256('tokenByIndex(uint256)')) == 0x4f6ccce7\n     *\n     *     => 0x18160ddd ^ 0x2f745c59 ^ 0x4f6ccce7 == 0x780e9d63\n     */\n    bytes4 private constant _INTERFACE_ID_ERC721_ENUMERABLE = 0x780e9d63;\n\n    /**\n     * @dev Initializes the contract by setting a `name` and a `symbol` to the token collection.\n     */\n    constructor (string memory name_, string memory symbol_)  {\n        _name = name_;\n        _symbol = symbol_;\n\n        // register the supported interfaces to conform to ERC721 via ERC165\n        _registerInterface(_INTERFACE_ID_ERC721);\n        _registerInterface(_INTERFACE_ID_ERC721_METADATA);\n        _registerInterface(_INTERFACE_ID_ERC721_ENUMERABLE);\n    }\n\n    /**\n     * @dev See {IERC721-balanceOf}.\n     */\n    function balanceOf(address owner) public view virtual override returns (uint256) {\n        require(owner != address(0), \"ERC721: balance query for the zero address\");\n        return _holderTokens[owner].length();\n    }\n\n    /**\n     * @dev See {IERC721-ownerOf}.\n     */\n    function ownerOf(uint256 tokenId) public view virtual override returns (address) {\n        return _tokenOwners.get(tokenId, \"ERC721: owner query for nonexistent token\");\n    }\n\n    /**\n     * @dev See {IERC721Metadata-name}.\n     */\n    function name() public view virtual override returns (string memory) {\n        return _name;\n    }\n\n    /**\n     * @dev See {IERC721Metadata-symbol}.\n     */\n    function symbol() public view virtual override returns (string memory) {\n        return _symbol;\n    }\n\n    /**\n     * @dev See {IERC721Metadata-tokenURI}.\n     */\n    function tokenURI(uint256 tokenId) public view virtual override returns (string memory) {\n        require(_exists(tokenId), \"ERC721Metadata: URI query for nonexistent token\");\n\n        string memory _tokenURI = _tokenURIs[tokenId];\n        string memory base = baseURI();\n\n        // If there is no base URI, return the token URI.\n        if (bytes(base).length == 0) {\n            return _tokenURI;\n        }\n        // If both are set, concatenate the baseURI and tokenURI (via abi.encodePacked).\n        if (bytes(_tokenURI).length > 0) {\n            return string(abi.encodePacked(base, _tokenURI));\n        }\n        // If there is a baseURI but no tokenURI, concatenate the tokenID to the baseURI.\n        return string(abi.encodePacked(base, tokenId.toString()));\n    }\n\n    /**\n    * @dev Returns the base URI set via {_setBaseURI}. This will be\n    * automatically added as a prefix in {tokenURI} to each token's URI, or\n    * to the token ID if no specific URI is set for that token ID.\n    */\n    function baseURI() public view virtual returns (string memory) {\n        return _baseURI;\n    }\n\n    /**\n     * @dev See {IERC721Enumerable-tokenOfOwnerByIndex}.\n     */\n    function tokenOfOwnerByIndex(address owner, uint256 index) public view virtual override returns (uint256) {\n        return _holderTokens[owner].at(index);\n    }\n\n    /**\n     * @dev See {IERC721Enumerable-totalSupply}.\n     */\n    function totalSupply() public view virtual override returns (uint256) {\n        // _tokenOwners are indexed by tokenIds, so .length() returns the number of tokenIds\n        return _tokenOwners.length();\n    }\n\n    /**\n     * @dev See {IERC721Enumerable-tokenByIndex}.\n     */\n    function tokenByIndex(uint256 index) public view virtual override returns (uint256) {\n        (uint256 tokenId, ) = _tokenOwners.at(index);\n        return tokenId;\n    }\n\n    /**\n     * @dev See {IERC721-approve}.\n     */\n    function approve(address to, uint256 tokenId) public virtual override {\n        address owner = ERC721.ownerOf(tokenId);\n        require(to != owner, \"ERC721: approval to current owner\");\n\n        require(_msgSender() == owner || ERC721.isApprovedForAll(owner, _msgSender()),\n            \"ERC721: approve caller is not owner nor approved for all\"\n        );\n\n        _approve(to, tokenId);\n    }\n\n    /**\n     * @dev See {IERC721-getApproved}.\n     */\n    function getApproved(uint256 tokenId) public view virtual override returns (address) {\n        require(_exists(tokenId), \"ERC721: approved query for nonexistent token\");\n\n        return _tokenApprovals[tokenId];\n    }\n\n    /**\n     * @dev See {IERC721-setApprovalForAll}.\n     */\n    function setApprovalForAll(address operator, bool approved) public virtual override {\n        require(operator != _msgSender(), \"ERC721: approve to caller\");\n\n        _operatorApprovals[_msgSender()][operator] = approved;\n        emit ApprovalForAll(_msgSender(), operator, approved);\n    }\n\n    /**\n     * @dev See {IERC721-isApprovedForAll}.\n     */\n    function isApprovedForAll(address owner, address operator) public view virtual override returns (bool) {\n        return _operatorApprovals[owner][operator];\n    }\n\n    /**\n     * @dev See {IERC721-transferFrom}.\n     */\n    function transferFrom(address from, address to, uint256 tokenId) public virtual override {\n        //solhint-disable-next-line max-line-length\n        require(_isApprovedOrOwner(_msgSender(), tokenId), \"ERC721: transfer caller is not owner nor approved\");\n\n        _transfer(from, to, tokenId);\n    }\n\n    /**\n     * @dev See {IERC721-safeTransferFrom}.\n     */\n    function safeTransferFrom(address from, address to, uint256 tokenId) public virtual override {\n        safeTransferFrom(from, to, tokenId, \"\");\n    }\n\n    /**\n     * @dev See {IERC721-safeTransferFrom}.\n     */\n    function safeTransferFrom(address from, address to, uint256 tokenId, bytes memory _data) public virtual override {\n        require(_isApprovedOrOwner(_msgSender(), tokenId), \"ERC721: transfer caller is not owner nor approved\");\n        _safeTransfer(from, to, tokenId, _data);\n    }\n\n    /**\n     * @dev Safely transfers `tokenId` token from `from` to `to`, checking first that contract recipients\n     * are aware of the ERC721 protocol to prevent tokens from being forever locked.\n     *\n     * `_data` is additional data, it has no specified format and it is sent in call to `to`.\n     *\n     * This internal function is equivalent to {safeTransferFrom}, and can be used to e.g.\n     * implement alternative mechanisms to perform token transfer, such as signature-based.\n     *\n     * Requirements:\n     *\n     * - `from` cannot be the zero address.\n     * - `to` cannot be the zero address.\n     * - `tokenId` token must exist and be owned by `from`.\n     * - If `to` refers to a smart contract, it must implement {IERC721Receiver-onERC721Received}, which is called upon a safe transfer.\n     *\n     * Emits a {Transfer} event.\n     */\n    function _safeTransfer(address from, address to, uint256 tokenId, bytes memory _data) internal virtual {\n        _transfer(from, to, tokenId);\n        require(_checkOnERC721Received(from, to, tokenId, _data), \"ERC721: transfer to non ERC721Receiver implementer\");\n    }\n\n    /**\n     * @dev Returns whether `tokenId` exists.\n     *\n     * Tokens can be managed by their owner or approved accounts via {approve} or {setApprovalForAll}.\n     *\n     * Tokens start existing when they are minted (`_mint`),\n     * and stop existing when they are burned (`_burn`).\n     */\n    function _exists(uint256 tokenId) internal view virtual returns (bool) {\n        return _tokenOwners.contains(tokenId);\n    }\n\n    /**\n     * @dev Returns whether `spender` is allowed to manage `tokenId`.\n     *\n     * Requirements:\n     *\n     * - `tokenId` must exist.\n     */\n    function _isApprovedOrOwner(address spender, uint256 tokenId) internal view virtual returns (bool) {\n        require(_exists(tokenId), \"ERC721: operator query for nonexistent token\");\n        address owner = ERC721.ownerOf(tokenId);\n        return (spender == owner || getApproved(tokenId) == spender || ERC721.isApprovedForAll(owner, spender));\n    }\n\n    /**\n     * @dev Safely mints `tokenId` and transfers it to `to`.\n     *\n     * Requirements:\n     d*\n     * - `tokenId` must not exist.\n     * - If `to` refers to a smart contract, it must implement {IERC721Receiver-onERC721Received}, which is called upon a safe transfer.\n     *\n     * Emits a {Transfer} event.\n     */\n    function _safeMint(address to, uint256 tokenId) internal virtual {\n        _safeMint(to, tokenId, \"\");\n    }\n\n    /**\n     * @dev Same as {xref-ERC721-_safeMint-address-uint256-}[`_safeMint`], with an additional `data` parameter which is\n     * forwarded in {IERC721Receiver-onERC721Received} to contract recipients.\n     */\n    function _safeMint(address to, uint256 tokenId, bytes memory _data) internal virtual {\n        _mint(to, tokenId);\n        require(_checkOnERC721Received(address(0), to, tokenId, _data), \"ERC721: transfer to non ERC721Receiver implementer\");\n    }\n\n    /**\n     * @dev Mints `tokenId` and transfers it to `to`.\n     *\n     * WARNING: Usage of this method is discouraged, use {_safeMint} whenever possible\n     *\n     * Requirements:\n     *\n     * - `tokenId` must not exist.\n     * - `to` cannot be the zero address.\n     *\n     * Emits a {Transfer} event.\n     */\n    function _mint(address to, uint256 tokenId) internal virtual {\n        require(to != address(0), \"ERC721: mint to the zero address\");\n        require(!_exists(tokenId), \"ERC721: token already minted\");\n\n        _beforeTokenTransfer(address(0), to, tokenId);\n\n        _holderTokens[to].add(tokenId);\n\n        _tokenOwners.set(tokenId, to);\n\n        emit Transfer(address(0), to, tokenId);\n    }\n\n    /**\n     * @dev Destroys `tokenId`.\n     * The approval is cleared when the token is burned.\n     *\n     * Requirements:\n     *\n     * - `tokenId` must exist.\n     *\n     * Emits a {Transfer} event.\n     */\n    function _burn(uint256 tokenId) internal virtual {\n        address owner = ERC721.ownerOf(tokenId); // internal owner\n\n        _beforeTokenTransfer(owner, address(0), tokenId);\n\n        // Clear approvals\n        _approve(address(0), tokenId);\n\n        // Clear metadata (if any)\n        if (bytes(_tokenURIs[tokenId]).length != 0) {\n            delete _tokenURIs[tokenId];\n        }\n\n        _holderTokens[owner].remove(tokenId);\n\n        _tokenOwners.remove(tokenId);\n\n        emit Transfer(owner, address(0), tokenId);\n    }\n\n    /**\n     * @dev Transfers `tokenId` from `from` to `to`.\n     *  As opposed to {transferFrom}, this imposes no restrictions on msg.sender.\n     *\n     * Requirements:\n     *\n     * - `to` cannot be the zero address.\n     * - `tokenId` token must be owned by `from`.\n     *\n     * Emits a {Transfer} event.\n     */\n    function _transfer(address from, address to, uint256 tokenId) internal virtual {\n        require(ERC721.ownerOf(tokenId) == from, \"ERC721: transfer of token that is not own\"); // internal owner\n        require(to != address(0), \"ERC721: transfer to the zero address\");\n\n        _beforeTokenTransfer(from, to, tokenId);\n\n        // Clear approvals from the previous owner\n        _approve(address(0), tokenId);\n\n        _holderTokens[from].remove(tokenId);\n        _holderTokens[to].add(tokenId);\n\n        _tokenOwners.set(tokenId, to);\n\n        emit Transfer(from, to, tokenId);\n    }\n\n    /**\n     * @dev Sets `_tokenURI` as the tokenURI of `tokenId`.\n     *\n     * Requirements:\n     *\n     * - `tokenId` must exist.\n     */\n    function _setTokenURI(uint256 tokenId, string memory _tokenURI) internal virtual {\n        require(_exists(tokenId), \"ERC721Metadata: URI set of nonexistent token\");\n        _tokenURIs[tokenId] = _tokenURI;\n    }\n\n    /**\n     * @dev Internal function to set the base URI for all token IDs. It is\n     * automatically added as a prefix to the value returned in {tokenURI},\n     * or to the token ID if {tokenURI} is empty.\n     */\n    function _setBaseURI(string memory baseURI_) internal virtual {\n        _baseURI = baseURI_;\n    }\n    \n     \n    \n\n    /**\n     * @dev Internal function to invoke {IERC721Receiver-onERC721Received} on a target address.\n     * The call is not executed if the target address is not a contract.\n     *\n     * @param from address representing the previous owner of the given token ID\n     * @param to target address that will receive the tokens\n     * @param tokenId uint256 ID of the token to be transferred\n     * @param _data bytes optional data to send along with the call\n     * @return bool whether the call correctly returned the expected magic value\n     */\n    function _checkOnERC721Received(address from, address to, uint256 tokenId, bytes memory _data)\n        private returns (bool)\n    {\n        if (!to.isContract()) {\n            return true;\n        }\n        bytes memory returndata = to.functionCall(abi.encodeWithSelector(\n            IERC721Receiver(to).onERC721Received.selector,\n            _msgSender(),\n            from,\n            tokenId,\n            _data\n        ), \"ERC721: transfer to non ERC721Receiver implementer\");\n        bytes4 retval = abi.decode(returndata, (bytes4));\n        return (retval == _ERC721_RECEIVED);\n    }\n\n    function _approve(address to, uint256 tokenId) private {\n        _tokenApprovals[tokenId] = to;\n        emit Approval(ERC721.ownerOf(tokenId), to, tokenId); // internal owner\n    }\n\n    /**\n     * @dev Hook that is called before any token transfer. This includes minting\n     * and burning.\n     *\n     * Calling conditions:\n     *\n     * - When `from` and `to` are both non-zero, ``from``'s `tokenId` will be\n     * transferred to `to`.\n     * - When `from` is zero, `tokenId` will be minted for `to`.\n     * - When `to` is zero, ``from``'s `tokenId` will be burned.\n     * - `from` cannot be the zero address.\n     * - `to` cannot be the zero address.\n     *\n     * To learn more about hooks, head to xref:ROOT:extending-contracts.adoc#using-hooks[Using Hooks].\n     */\n    function _beforeTokenTransfer(address from, address to, uint256 tokenId) internal virtual { }\n}\n\n/**\n * @title ERC721 token receiver interface\n * @dev Interface for any contract that wants to support safeTransfers\n * from ERC721 asset contracts.\n */\n\n\n/**\n * @dev Collection of functions related to the address type\n */\n\n\n\n\n\n\n\ncontract ContractBurger is ERC721, Ownable {\n\n    using SafeMath for uint256;\n    using Strings for uint256;\n\n\n    mapping(uint256 => uint256) private assignOrders;\n\n    uint256 public SALE_START_TIMESTAMP = 1 ; // 1628535570\n\n    uint256 public constant MAX_SUPPLY = 20020;\n    uint256 public texugosRemainingToAssign = MAX_SUPPLY;\n\n\n    uint256 public constant MAX_RESERVE = 10;\n    uint256 public reserved = 0;\n    \n    uint256 public randIndex = 0;\n    uint256 public texugoIndex =0;\n\n    \n    // Base URI\n    address private _donationRecipient;\n    address private _addressDraw1;\n    address private _royalRecipient;\n\n    \n    //uint256[] private drawAmounts = [1 ether, 2 ether, 5 ether]; //Prod represents [2021, 7071, ALL]\n    \n    uint256 public  unitprice = 1 ether/10;\n    uint256[] public  drawAmounts = [1 ether, 2 ether, 3 ether]; //tests \n    uint public constant drawAfterTotalSupply = 3 ether / 10; // define a reasonable value for open market draw\n\n\n    uint256 public dateDraw1;\n    \n    \n    //Better make private after validations\n    uint256 public fundsDon = 0;\n    uint256 public fundsDraw = 0;\n    uint256 public fundsRoyal = 0;\n\n    \n    uint256 public currentDraw = 0;\n    \n    \n    address constant private nul = 0x0000000000000000000000000000000000000000;\n\n\n\n    string public _dataVault;\n    \n    string public constant imageHash = \"notneeded-after-erc721\";\n    \n    \n    \n    \n    \n    function changeDonationRecipient(address  donationRecipient) onlyOwner public {\n       _changeDonationRecipient(donationRecipient);\n    }\n    \n    function _changeDonationRecipient(address  donationRecipient_) internal virtual {\n        _donationRecipient = donationRecipient_;\n    }\n    \n    function getDonationRecipient() public view virtual returns (address ) {\n        return _donationRecipient;\n    }\n    \n    function withdrawDonation() external {\n        require(msg.sender == _donationRecipient);\n        //uint256 don = address(this).balance / 2\n        uint256 f = fundsDon;\n        fundsDon = 0;\n        payable(msg.sender).transfer(f);\n\n        \n    }\n    \n    \n    \n    function changeRoyalRecipient(address  royalRecipient) onlyOwner public {\n       _changeRoyalRecipient(royalRecipient);\n    }\n    \n    function _changeRoyalRecipient(address  royalRecipient_) internal virtual {\n        _royalRecipient = royalRecipient_;\n    }\n    \n    function getRoyalRecipient() public view virtual returns (address ) {\n        return _royalRecipient;\n    }\n    \n    function withdrawRoyal() external {\n        require(msg.sender == _royalRecipient);\n        //uint256 don = address(this).balance / 2\n        uint256 f = fundsRoyal;\n        fundsRoyal = 0;\n        payable(msg.sender).transfer(f);\n\n        \n    }\n    \n    \n    \n    \n    \n    function changeDraw1Recipient(address  draw1Recipient)  internal {\n       _changeDraw1Recipient(draw1Recipient);\n\n    }\n    \n    function _changeDraw1Recipient(address  draw1Recipient_) internal virtual {\n        _addressDraw1 = draw1Recipient_;\n    }\n    \n    function getDraw1Recipient() public view virtual returns (address ) {\n        return _addressDraw1;\n    }\n    \n    function withdrawFundsDraw() external {\n        require(msg.sender == _addressDraw1,\"Address not Eligible\");\n        uint256 prize =  (currentDraw < 3) ? drawAmounts[currentDraw] : drawAfterTotalSupply;\n        require(fundsDraw > prize,\"Not enough Burgers sold yet\");\n        fundsDraw = fundsDraw - prize;\n        currentDraw +=1;\n        _changeDraw1Recipient(nul);\n        payable(msg.sender).transfer(prize);\n        \n    \n    }\n    \n    function doDraw() internal {\n        changeDraw1Recipient(ownerOf(tokenByIndex(_random(totalSupply()) % totalSupply())));\n        \n        /*\n        uint256 winnerTokenId = _random(totalSupply) % totalSupply;\n        uint256 winnerToken = tokenByIndex(winnerTokenId);\n        address winnerAddr = ownerOf(winnerToken);\n        */\n        \n        \n        }\n    \n    \n    function dataVaultOnChain(string  memory dataVault)  public {\n       _dataVaultOnChain(dataVault);\n    }\n    \n    function _dataVaultOnChain(string memory  dataVault_) internal virtual {\n        _dataVault = dataVault_;\n    }\n    \n    \n    \n    \n    \n    \n\n    constructor(string memory name, string memory symbol, string memory baseURI) ERC721(name, symbol) {\n        _setBaseURI(baseURI);\n    }\n\n   /* function reserveNFTs(uint256 amount) onlyOwner public {\n        require(SafeMath.add(totalSupply(), amount) <= MAX_SUPPLY, \"Exceeds maximum supply. Please try to mint less Nfts.\");\n        require(reserved.add(amount) <= MAX_RESERVE, \"Exceeds maximum reserve. Please try to mint less Nfts.\");\n\n        for (uint i = 0; i < amount; i++) {\n            uint mintIndex = totalSupply();\n            _safeMint(msg.sender, mintIndex);\n        }\n        reserved += amount;\n    }*/\n\n    function setSaleTimestamp(uint256 new_SALE_START_TIMESTAMP) onlyOwner public {\n        SALE_START_TIMESTAMP = new_SALE_START_TIMESTAMP;\n    }\n\n    function getNFTPrice(uint256 amount) public view returns (uint256) {\n        require(totalSupply() < MAX_SUPPLY, \"Sale has already ended.\");\n\n        return amount.mul(unitprice);\n    }\n\n    function _random(uint256 capme) internal view returns(uint256) {\n        return uint256(\n            keccak256(\n                abi.encodePacked(block.timestamp + block.difficulty + ((uint256(keccak256(abi.encodePacked(block.coinbase)))) / block.timestamp) + block.gaslimit + ((uint256(keccak256(abi.encodePacked(_msgSender())))) / block.timestamp) + block.number)\n            )\n        ) / capme;\n    }\n\n    function _fillAssignOrder(uint256 orderA, uint256 orderB) internal returns(uint256) {\n        uint256 temp = orderA;\n        if (assignOrders[orderA] > 0) temp = assignOrders[orderA];\n        assignOrders[orderA] = orderB;\n        if (assignOrders[orderB] > 0) assignOrders[orderA] = assignOrders[orderB];\n        assignOrders[orderB] = temp;\n        return assignOrders[orderA];\n    }\n\n    function mintBurger(uint256 amount) public payable {\n        // require(block.timestamp >= SALE_START_TIMESTAMP, \"Sale has not started yet.\");\n        require(totalSupply() < MAX_SUPPLY, \"Sale has already ended.\");\n        require(amount > 0, \"You cannot mint 0 Nfts.\");\n        require(amount <= 20, \"You cannot mint more than 20 Nfts per once\");\n        require(SafeMath.add(totalSupply(), amount) <= MAX_SUPPLY, \"Exceeds maximum supply. Please try to mint less Nfts.\");\n        require(getNFTPrice(amount) == msg.value, \"Amount of Ether sent is not correct.\");\n        \n        fundsDraw += (msg.value * 5 /100);\n        fundsDon += (msg.value * 5 /100);\n        fundsRoyal += (msg.value * 45 /100);\n\n        (bool success,) = owner().call{value: (msg.value * 45 ) /100}(\"\");\n        require(success);\n\n        for (uint i = 0; i < amount; i++) {\n            randIndex = _random(texugosRemainingToAssign) % texugosRemainingToAssign;\n            texugoIndex = _fillAssignOrder(--texugosRemainingToAssign, randIndex);\n            _safeMint(msg.sender, texugoIndex);\n            \n        }\n        \n        if (fundsDraw > drawAmounts[currentDraw]){\n            doDraw();\n        }\n    }\n\n    function buyTexugo(uint256 tokenId) payable public {\n        Offer memory offer = texugosOfferedForSale[tokenId];\n        require(tokenId < MAX_SUPPLY, \"Out of tokenId\");\n        require(offer.isForSale, \"No Sale\");\n        require(offer.onlySellTo == address(0) || offer.onlySellTo == _msgSender(), \"Unable to sell\");\n        require(msg.value >= offer.minValue, \"Insufficient amount\");\n        require(ownerOf(tokenId) == offer.seller, \"Not seller\");\n        address seller = offer.seller;\n        // Transfer the NFT\n        _safeTransfer(seller, _msgSender(), tokenId, \"\");\n        pendingWithdrawals[seller] += msg.value * 95 / 100;\n        // handle\n        (bool success,) = owner().call{value: msg.value * 4 / 100}(\"\");\n        fundsDon += msg.value * 50 / 1000;\n        fundsDraw += msg.value * 50 / 1000;\n        \n        if (fundsDraw > drawAmounts[currentDraw]){\n            doDraw();\n        }\n        \n        require(success);\n        // handle\n        // emit TexugoBought(tokenId, msg.value, seller, _msgSender());\n    }\n\n    function texugoNoLongerForSale(uint256 tokenId) public {\n        _texugoNoLongerForSale(_msgSender(), tokenId);\n    }\n\n    function _texugoNoLongerForSale(address from, uint256 tokenId) internal onlyTradableTexugo(from, tokenId) {\n        texugosOfferedForSale[tokenId] = Offer(false, tokenId, from, 0, address(0));\n        // emit TexugoNoLongerForSale(tokenId);\n    }\n\n    function offerTexugoForSale(uint256 tokenId, uint256 minSalePriceInWei) public onlyTradableTexugo(_msgSender(), tokenId) {\n        texugosOfferedForSale[tokenId] = Offer(true, tokenId, _msgSender(), minSalePriceInWei, address(0));\n        // emit TexugoOffered(tokenId, minSalePriceInWei, address(0));\n    }\n\n    function enterBidForTexugo(uint256 tokenId) public payable {\n        require(tokenId < MAX_SUPPLY, \"Out\");\n        require(ownerOf(tokenId) != _msgSender(), \"Invalid\");\n        require(msg.value > texugoBids[tokenId].value, \"Invalid\");\n        Bid memory existing = texugoBids[tokenId];\n        if (existing.value > 0) {\n            // Refund the failing bid\n            pendingWithdrawals[existing.bidder] += existing.value;\n        }\n        texugoBids[tokenId] = Bid(true, tokenId, _msgSender(), msg.value);\n        // emit TexugoBidEntered(tokenId, msg.value, _msgSender());\n    }\n\n    function acceptBidForTexugo(uint256 tokenId, uint256 minPrice) public onlyTradableTexugo(_msgSender(), tokenId) {\n        require(texugoBids[tokenId].value >= minPrice, \"Invalid\");\n        Bid memory bid = texugoBids[tokenId];\n\n        texugoBids[tokenId] = Bid(false, tokenId, address(0), 0);\n        _safeTransfer(_msgSender(), bid.bidder, tokenId, \"\");\n\n        pendingWithdrawals[_msgSender()] += bid.value * 95 / 100;\n        (bool success,) = owner().call{value: bid.value * 5 / 100}(\"\");\n        require(success);\n        \n        // emit TexugoBought(tokenId, bid.value, _msgSender(), bid.bidder);\n    }\n\n    function withdrawBidForTexugo(uint256 tokenId) public {\n        require(tokenId < MAX_SUPPLY, \"Out\");\n        require(ownerOf(tokenId) != _msgSender(), \"Invalid\");\n        require(texugoBids[tokenId].bidder == _msgSender(), \"Invalid\");\n        texugoBids[tokenId] = Bid(false, tokenId, address(0), 0);\n        // Refund the bid money\n        (bool success,) = _msgSender().call{value: texugoBids[tokenId].value}(\"\");\n        require(success);\n        // emit TexugoBidWithdrawn(tokenId, texugoBids[tokenId].value, _msgSender());\n    }\n    \n    function transferEther(address payable recipient, uint256 amount) onlyOwner public payable {\n      recipient.transfer(amount);\n  }\n\n    \n    function withdraw() public {\n        uint256 amount = pendingWithdrawals[_msgSender()];\n        pendingWithdrawals[_msgSender()] = 0;\n        (bool success,) = _msgSender().call{value: amount}(\"\");\n        require(success);\n    }\n\n    function withdraw(uint256 amount) onlyOwner public {\n        payable(msg.sender).transfer(amount);\n    }\n\n    function changeBaseURI(string memory baseURI) onlyOwner public {\n       _setBaseURI(baseURI);\n    }\n\n    function tokenURI(uint256 tokenId) public view override returns (string memory) {\n        require(_exists(tokenId), \"ERC721Metadata: URI query for nonexistent token\");\n\n        return string(abi.encodePacked(baseURI(), tokenId.toString()));\n    }\n}\n",
  "sourcePath": "/home/kg/burger/burger/src/contracts/contracts/ContractBurger.sol",
  "compiler": {
    "name": "solc",
    "version": "0.8.0+commit.c7dfd78e.Emscripten.clang"
  },
  "schemaVersion": "3.4.3",
  "updatedAt": "2021-10-29T18:06:41.673Z",
  "devdoc": {
    "details": "see https://eips.ethereum.org/EIPS/eip-721",
    "kind": "dev",
    "methods": {
      "approve(address,uint256)": {
        "details": "See {IERC721-approve}."
      },
      "balanceOf(address)": {
        "details": "See {IERC721-balanceOf}."
      },
      "baseURI()": {
        "details": "Returns the base URI set via {_setBaseURI}. This will be automatically added as a prefix in {tokenURI} to each token's URI, or to the token ID if no specific URI is set for that token ID."
      },
      "constructor": {
        "details": "Initializes the contract by setting a `name` and a `symbol` to the token collection."
      },
      "getApproved(uint256)": {
        "details": "See {IERC721-getApproved}."
      },
      "isApprovedForAll(address,address)": {
        "details": "See {IERC721-isApprovedForAll}."
      },
      "name()": {
        "details": "See {IERC721Metadata-name}."
      },
      "ownerOf(uint256)": {
        "details": "See {IERC721-ownerOf}."
      },
      "safeTransferFrom(address,address,uint256)": {
        "details": "See {IERC721-safeTransferFrom}."
      },
      "safeTransferFrom(address,address,uint256,bytes)": {
        "details": "See {IERC721-safeTransferFrom}."
      },
      "setApprovalForAll(address,bool)": {
        "details": "See {IERC721-setApprovalForAll}."
      },
      "supportsInterface(bytes4)": {
        "details": "See {IERC165-supportsInterface}. Time complexity O(1), guaranteed to always use less than 30 000 gas."
      },
      "symbol()": {
        "details": "See {IERC721Metadata-symbol}."
      },
      "tokenByIndex(uint256)": {
        "details": "See {IERC721Enumerable-tokenByIndex}."
      },
      "tokenOfOwnerByIndex(address,uint256)": {
        "details": "See {IERC721Enumerable-tokenOfOwnerByIndex}."
      },
      "tokenURI(uint256)": {
        "details": "See {IERC721Metadata-tokenURI}."
      },
      "totalSupply()": {
        "details": "See {IERC721Enumerable-totalSupply}."
      },
      "transferFrom(address,address,uint256)": {
        "details": "See {IERC721-transferFrom}."
      }
    },
    "title": "ERC721 Non-Fungible Token Standard basic implementation",
    "version": 1
  },
  "userdoc": {
    "kind": "user",
    "methods": {},
    "version": 1
  }
}